:400000000040002011000000210300002103000008B500F08DF9C04638B51222274B1A6000F020FD264800F047FE012000F03AFD302000F069FC234A234B1A60234C8025BB
:40004000ED052560224A116802230B431360214A214B1A600022214B1A60214A136808218B431360FA20C00000F0C8FC1D4800F0BBFCE82252011C4B1A601C4B1C4A1A6076
:40008000882189011B4A11601B4A1A60802212061A4B1A608022D202194B1A604022194B1A600132184B1A600820184900F072FC082000F063FC256038BDC04630001040BD
:4000C000001BB7000600008004010B400C020B4078002E402D3E00007C002E4064F02E406CF02E40DC050000000301400000014040FF00800403014041FF008008010B40B7
:4001000000010B400801014004010140BD0B000010B572B60022274B1A60002410E0264863001A195200821891881B195B001A5AC31858880004104300F058F90134E4B2E2
:40014000012CECD91D4A1E4B1A6099231B041D4A13601D4A13601D4A13601D4B197802220A431A701B4802783C218A4328390A430270197816220A431A702322164B1A60FF
:40018000164A174B1A602022164B1A606032164B1A60B022D203154B1A6080221202144B1A60D8221204134B1A60FFF735FF00F00DF910BD6CF02E40F0220100EE0099EE42
:4001C0000000024000500F4020500F4030500F4000700F4001700F40000004402410DB00080004401800044000020440080204400C0204400803044010B5064C2378002B04
:4002000007D1054B002B02D0044800E000BF0123237010BD8010002000000000EC22010008B5084B002B03D00748084900E000BF07480368002B00D108BD064B002BFBD05C
:400240009847F9E700000000EC22010084100020A80B00200000000010B50C1C282814D04C2822D0272836D11B48022201F015F801221A4B1A70012000F012FD002000F085
:4002800003FD012000F0F4FC25E0002000F02AF90022124B1A70002000F002FD012000F0F3FC012000F0E4FC15E08B899BB20E2B11D1012000F0F4FC012000F0E5FC002078
:4002C00000F0D6FC00236360034A13785078000218430CF011FC10BD282200209C10002008B562B6012000F0DBFC012000F0CCFC012000F0BDFC094800F09CF801F00EF821
:4003000000F0AEFC0028F9D100F0ECF800F0A8FC0028FBD0002000F0C3FCEFE75902000008B500F07FFF03680C2B00D1FEE7FEE770B50F4E0F4D13E029686B68AC68002203
:4003400002E001C901C30432A242FAD1E868002202E0002102C304328242FAD11035013E002EE9D100F064FFFFF7BAFFFEE7C046010000006425010008B50F4A1368012192
:400380008B43136000230AE0032B03D89A000B49505800E00A4899000A4A885001332F2BF2D9FFF7B5FE0022074B1A60024A116801230B43136008BD0000104000000000AA
:4003C0002103000000000020C00000200323044A1360044A13600022034B1A607047C0463000304030003140000E3F4008B50A1C002100F05BFF08BD08B500F083FA08BDBA
:4004000010B50024064B1C70064B1C70064B1C70FFF7F2FF054B1C70054B1C7010BDC046432200203C220020422200202C2200203422002010B590B0041C0BA820491422E8
:4004400000F02BFF20231F4AD35C002B05D1FFF7D7FF012120231B4AD154002C2DD01A4B1C6008A805AA426006AB0893002101811B31198059801739197100231370123150
:40048000694401F027F8002818D1052300930F4B01930F4B02930F480F49AE2212010BAB00F06EFF002809D101220C4B1A700C4815210E320DF054F800E0012010B010BD8A
:4004C000FC220100B410002030220020002E0100790200003D060000C80000203A2200201023010008B502282ED81B4B1B78042B2CD11A4B1B785B072BD4002809D1184B32
:400500001E221A860232596A0A805B6A10325A800CE001280AD1124B96221A86C822D200596A0A805B6A8022D2015A800D4B18700B4820300BF036F900280CD1074A11782B
:4005400004230B43137006E0012004E00420FF3001E00420FF3008BD3A22002043220020AC0B0020422200207047C04603784078000218437047C04638B58389092B20D1C8
:40058000041C04300021221C37330DF001F8051E11D16068FFF7EAFF830706D50A4B1B6882204000211C984705E0074B1B680620FF30211C9847054A137801218B431370C9
:4005C00000E00025281C38BD3022002043220020024B00225A701A707047C0464022002010B582B0041CFFF7C7FF0A4B1B78DB070ED4002809D001A912238B70A3890B80B3
:40060000C87020680CF0F6F902E020680CF074FA02B010BD432200208379002B07D000200BE0C25C002A07D10133DBB200E00023052BF6D9002000E001207047F0B583B09B
:40064000041C0D1C9C4A117801230B431370272800D1BAE012D8062800D17EE004D8012821D0052875D015E1242800D1A9E0262800D1B2E0212800D00CE182E0422800D174
:40068000F4E006D8282800D1A3E0412800D1D8E000E14C2800D1F4E0FA2800D1F5E0432800D0F7E0E5E001AE0727377000237370301C02F0D3FD377001237370301C02F0D5
:4006C000CDFD7E4B1E68301CFFF7A6FF00280CD0301C00F027FE794E30680021FFF744FF30680121FFF740FF25E0754B1B78754A12783F210A4092010B401343724A127828
:4007000020390A4012031343704A127860310A40520413436E4E33701A0A72701B0CB370301C00F0FFFD301C0021FFF71DFF301C0121FFF719FF00200AF0E2FE01A83F23F9
:400740000370002343700AF0F9FE0422614B1A70A0E02A78604B1A709CE02B78002B00D098E06B78002B06D15C4B0022DA809A805B4A1A606B60504A137801218B43137056
:4007800088E04D4B1B789B0600D583E0554B1B78102B02D10522534BDA70534B187851490AF0BEFF01AB1880002804D04F4B1B68362001A99847404A117801230B431370BA
:4007C00068E06A784A4B1A7064E00222414B1A7060E004223F4B1A705CE03E4B1B78022B58D0354A1278D20754D5334A1278520708D50322374B1A702F4A137804218B439B
:40080000137047E02C4A1278120708D50422314B1A70294A137808218B4313703AE0032B38D104222B4B1A70324B1B78002B31D10120FFF757FE00282CD10322254B1A7010
:4008400028E0294E301C291C022200F026FD0022214B1A7031783D31FF314900264B591801312648023200F018FD13E0FFF7B0FE10E06988162900D9172128880CF0C4F89E
:4008800008E0281CFFF7ACFE04E01D4A117801230B431370084B1A7811231A4209D0064A137801218B431370104B1B68201C291C984703B0F0BDC04643220020E00B0020D3
:4008C0007CF1FF0F7DF1FF0F7BF1FF0F78F1FF0FE40B00203A2200203C220020D8100020A80B0020E00C002040220020302200203422002042220020002E01003822002089
:400900002C2200207047C04610B586B0041C00F0DCF90E4B1B6800930D4B1B680193033C0C4B1B5D02930C4B1B68039304AA0B4B04936B4605930A4B1A600A490A4A1160F0
:400940001B6800F0C6F906B010BDC04608010B4000010B400C25010030001040B6EA0000080010401700008004001040024B1B68012018407047C0460C002E401F2318406D
:400980001E3B8340181C014B1860704700E100E001BE704738B5041C0D1C1F2802D90020FFF7F6FFA400034B9C4664442068256038BDC0464000002010B5041C06E0084BD0
:4009C000586800F079F9074B9C46644480231B029C42F4D8024B9868604300F06DF910BDE80C00200080FFFF08B5034B1B7B584300F062F908BDC046E80C002010B5041C9F
:400A00000F4A116801230B4313600E4A0E4B1A600E4A1368802109020B431360002809D100200CE00120FFF7DFFFFFF79FFF002804D1013C002CF5D1102000E0002010BDD4
:400A400060F02E400220000078002E4010002E40034B1868C0231B02184000D00120704700010B4010B50D4B1A6801218A431A601A68022082431A60094A10683024A0432B
:400A8000203C204310601068093CA043014311601A68802109060A431A6010BD00F02E4000FF2E4038B51D4B1B6801241C40002802D0012816D02BE0184B196801229143D9
:400AC00019601968022081431960154B19682E3081432038014319601968093881430A431A6018E00D4B1A6802218A431A600C4A10680725A84301431160116830208143D5
:400B0000103801431160196801220A431A6002E00020FFF73DFF201C38BDC04600F02E4000FF2E4008B500F0D0F8044A1368C02109020B43136000F0CCF808BD00010B4067
:400B400010B500F0C2F808490A68084B1A408024E40122430A600A6813408022120213430B6000F0B6F810BD00010B40FF3FFFFF70B5061C00F0A9F8041CFFF769FF002891
:400B800003D0FFF7DDFF012500E000250848331C0340084A106808490840184310601368012D01D1FFF7BEFF201C00F092F870BD0404040010020B40FBFBFBFF10B5244BB7
:400BC0001B685B0715D5234B5B685B070ED5224B596A042001401F4C62688A4362605A6A82435A629B69002B00D098470420FFF7BFFF174B1B685B0518D5164B5B685B05A6
:400C000010D5154B596A8022D2001140114842688A434260596A114A0A405A62DB69002B00D098478020C000FFF7A2FF084B1B685B030CD5074B5B685B0304D5064B1B6A05
:400C4000002B00D098478020C002FFF791FF10BD10020B40FC0C0020E0100020FFFBFFFF024B18680006C00F7047C04604020440044A11687F230B40C001C0B218431060FD
:400C80007047C0460003044004490A68BF231A4080017F3B18401043086070470003044004490A68BF231A4080017F3B1840104308607047000204400230800803D00138DD
:400CC000FDD1C046C046C0467047EFF3108072B6704780F3108870470160704701607047324B1A781202324B1B781A43314B1B781B02314909780B4330498B4201D1072ACC
:400D000006D0D42109018B4206D1042A04D102E02B4B042200E02A4B2A490B602A4B1A602A4B1B781B022A4A1278134380229201934202D0002B02D002E0264B00E0254BA2
:400D4000254A1360254B1B781B02254A12781343244A934205D0244A934204D0052B05D103E0224B02E0214B00E0204B204A1360204B1B681B09204A1268AA2A15D1012B4B
:400D800013D9164B1B780E2B0FD11C4B1B781B021B4A127813431B4A13601B4B1B781B021A4A127813431A4A13607047D9F0FF0FD8F0FF0FDFF0FF0FDEF0FF0F580B000055
:400DC000580D00006C002E4074002E40DBF0FF0FDAF0FF0F0220000078002E40DDF0FF0FDCF0FF0F0F0F000005050000050F000080002E40EC0F00F0E00F00F06DF2FF0F03
:400E00006CF2FF0F84002E406FF2FF0F6EF2FF0F94002E4008B5FFF7E7FD08BD08B5FFF7CBFD08BD08B500F04BF808BD08B500F04FF808BD08B500F04BF8034800F02AF81E
:400E4000032000F02DF808BD190F000008B5024800F046F808BDC046190F00000220FF307047C0462B2070472B2070472B2070472B2070472B2070472B2070472B20704709
:400E80002B2070472B2070472B2070472B2070477047C046014B18677047C0460000002010B5041CFFF711FF044A1368C0218B43A4011C431460FFF70CFF10BD0CE400E04C
:400EC00080225201014B1A607047C04600E100E080225201014B1A607047C04680E100E010B5041CFFF7F4FF201CFFF7D3FF0320FFF7D6FFFFF7E4FF10BDC04608B5FFF7E1
:400F0000E4FE044A136804218B43136030BFFFF7E0FE08BD10ED00E008B511F0D3F908BD002243088B4274D303098B425FD3030A8B4244D3030B8B4228D3030C8B420DD3DD
:400F4000FF22090212BA030C8B4202D31212090265D0030B8B4219D300E0090AC30B8B4201D3CB03C01A5241830B8B4201D38B03C01A5241430B8B4201D34B03C01A52412C
:400F8000030B8B4201D30B03C01A5241C30A8B4201D3CB02C01A5241830A8B4201D38B02C01A5241430A8B4201D34B02C01A5241030A8B4201D30B02C01A5241CDD2C309FC
:400FC0008B4201D3CB01C01A524183098B4201D38B01C01A524143098B4201D34B01C01A524103098B4201D30B01C01A5241C3088B4201D3CB00C01A524183088B4201D355
:401000008B00C01A524143088B4201D34B00C01A5241411A00D20146524110467047FFE701B5002000F0FCF802BDC0460029F7D003B5FFF775FF0EBC4243891A1847C04632
:4010400003460B437FD4002243088B4274D303098B425FD3030A8B4244D3030B8B4228D3030C8B420DD3FF22090212BA030C8B4202D31212090265D0030B8B4219D300E0C3
:40108000090AC30B8B4201D3CB03C01A5241830B8B4201D38B03C01A5241430B8B4201D34B03C01A5241030B8B4201D30B03C01A5241C30A8B4201D3CB02C01A5241830A40
:4010C0008B4201D38B02C01A5241430A8B4201D34B02C01A5241030A8B4201D30B02C01A5241CDD2C3098B4201D3CB01C01A524183098B4201D38B01C01A524143098B4201
:4011000001D34B01C01A524103098B4201D30B01C01A5241C3088B4201D3CB00C01A524183088B4201D38B00C01A524143088B4201D34B00C01A5241411A00D20146524189
:40114000104670475DE0CA0F00D04942031000D34042534000229C4603098B422DD3030A8B4212D3FC22890112BA030A8B420CD3890192118B4208D3890192118B4204D387
:4011800089013AD0921100E08909C3098B4201D3CB01C01A524183098B4201D38B01C01A524143098B4201D34B01C01A524103098B4201D30B01C01A5241C3088B4201D382
:4011C000CB00C01A524183088B4201D38B00C01A5241D9D243088B4201D34B00C01A5241411A00D20146634652415B10104601D34042002B00D54942704763465B1000D354
:40120000404201B5002000F00BF802BD0029F8D003B5FFF715FF0EBC4243891A1847C0467047C046014B18687047C0467C1000200E4B70B500251E1C0D4CE41AA410A542D9
:4012400004D0AB00F35898470135F8E711F078F9084B00251E1C084CE41AA410A54204D0AB00F35898470135F8E770BD4C2501004C2501004C2501005425010030B50024DB
:40128000944208D0035D651C0C5DA34201D0181B02E02C1CF4E7002030BD002310B5934203D0CC5CC4540133F9E710BD031C8218934202D019700133FAE77047134A1088E0
:4012C000810703D08107890F401A001D11791030484381B25088820703D08207920F801A001D800040180A494030098980B2CA0701D0503080B2890706D504495422091F56
:4013000009785143081880B2704700000A0D00201411002010B501F0C7FE10BD10B500F055FA10BD10B50749044609780220002907D1204601F008FF002802D120460AF03E
:40134000D5F910BD9C0E002070B504460120002C12D02368002B0FD0616800290CD0074D06222889208118462968FFF796FF6968606809780170002070BD000014110020A2
:40138000FFB585B0002768460E9D07734F481C460078002802D0082009B0F0BD10990F9801900095029105A807C800F001F90028F2D16946264603AB84460873002C19D0D4
:4013C000002115E08A00B75A082F09D990198078002805D0083FB7521878401C187005E0002914D00027B75290198770491CC9B2A942E7D360460028CED10F98002809D065
:40140000109901F001FA002804D00120C4E701208446EFE701F048FE2D480021416081600599016021888180022D07D3A1798171A17AC171A1890181218A418100211EE0FC
:40144000481C19E082008B00A75AE65ABE46BE4211D26F463E80B4461E190296B678BE7001967646E6521719029EBB78B3706646A652019EBE70401CA842E3D3491CA942D4
:40148000DED3134822460C3000906846037B0799069800F015F90028B8D168460B4C007B60700B480C3001F02FFE0028AED1084907480C3107F0FEF80028A7D107F018F9BD
:4014C0000028A3D10121217066E70000040D002008110020F8B5054633480E460078002802D002242046F8BD002E5BD000242F49002D16D02A89D0070DD02868002808D06D
:4015000003881B3BE12B04D24088FB2801D81B2801D2012409E0900707D56868002804D1F7E70020088108604860002CDAD11F482F8907811C481B21801D01804180042107
:40154000017119490020891C0870F80705D016480622801D2968FFF7A0FE1449B80703D56A681148127882700F480D46801D0860001F486001F00EFE0B48801D01F0FCFD56
:4015800028890DF0B5F828890DF01CFA03461033FFF794FE1F21C018890140180249308088809FE701249DE7040D002014110020FFB58446384F1C460020BB883F7805468A
:4015C00002460646002F11D100290ED0029999420BD36146002908D0002C06D00A99002906D02E4B0B99994202D2012004B0F0BD002144E0AB001F19BF78002F3BD0E35A7B
:40160000002B38D07B43591889B22B0000F04AF8050410161C253100A7782388BC46FF27233BEB37BB4222D26346032B1FD322E0A388002B1FD0302B19D31CE02389002B82
:4016400019D0282B13D316E0A289002A13D01346134F233BBB420AD20DE0268A002A0AD033460F4F233BBB4201D2964203D901200EE0002001E000280AD16D1CEDB2099BEF
:401680009D42B7D31C2463435B1802998B42ACD89642AAD8AAE70000040D002079020000BAFF000030B47446641E2578641CAB4200D21D46635D5B00E31830BC184700006C
:4016C000FFB583B0002469460C801F4606468C80002806D00598002803D004983043800701D0012466E0002FFBD03449049809888842F6D3FFF7AAFBFFF798FB00F00EFC2A
:40170000002855D100F076FD002851D12C49084601F0AEF805042D0C4AD12A480499066081800021C18007810C98007AC00704D0684601F0D2FC040007D10C98007A8007F0
:4017400003D501A801F0D2FC0446BF1DFEB2002C20D13146059800F05DF804001AD10DF03FF9040016D16A461088928808368518144AF1B29088D288AEB29319984207D35E
:40178000401B801A80B201F063FB050007D000E0FF25012400F05AFA002D04D008E0F8B200F01CF9F6E700F07DFA07490120087000F0C6FB204607B0F0BD0000080D0020F5
:4017C0000119000020110020100D002010B503480078012801D101F0DDF910BD100D002070B5084B0446DA889E8800205518B54206D81D68AA182260DA885118D98070BD27
:40180000032070BD20110020014800897047000020110020F0B587B007460D4600208900009006916846FFF7DBFF844600285DD1304800990160002117E02E4B88001A6836
:401840000629115406D22C4C0419667882185670628805E0C419203CA67A8218567022891B68C018491C4280C9B2A942E5D300242DE0601CC2B2059025E01E4FA3003968EA
:401880009600581840887118039604904E88B04217D938466F46FE80B6464F786E4677710297049F4F800168039F5E18767879184E700168764659184E800068029F181876
:4018C0004770521CD2B2AA42D7D30598C4B2AC42CFD36046002809D168460699FFF780FF8446002802D1054900980860604607B0F0BD0000140D002078250100180D00205B
:401900007047000010B5002809D005494A68002A05D0011F08788000105801F047FA10BD140D002010B50446FFF76EFFC0B2801DA0420CD307484068002808D0A1004058F1
:4019400001F0A6F9002801D00470001D10BD002010BD0000140D0020F8B516460D460446FFF752FFC0B2801DA04203D20020C0430090F8BDB2B2E9B2684601F0AFF9009958
:40198000481C03D0024AA000526811500098F8BD140D0020F8B50746FFF736FF801DC6B20A49002005460C680DE06178002907D06188B94202D32078FFF7B4FF002804D132
:4019C000241D6D1CEDB2B542EFD3F8BD140D002010B5002801D0FFF795FF10BD70B506460948002504680BE06178002905D062882078121D0023FFF7AFFF241D6D1CEDB2C4
:401A0000B542F1D370BD0000140D0020FFB581B00A9C16002BD000F0EFF80546042826D0214F002C0BD02046FFF7B4FF2901C919486000281BD022460499FFF72EFC1A49C8
:401A400028010E5046187481019805707D20029CC000444300F0BEF8074604280AD000F053FAA0420ED800F04FFA201A06E0FF2005B0F0BD204600F0ABFA0020F060357212
:401A80000020F5E700F040FA009000F0B7FA00980121001B009000F0EDF803493A0151180098C860E6E700002C110020F8B5060116483418217A042903D0E068002802D080
:401AC00017E00020F8BD00F01FFA054600F096FA00F0A0F804280CD001010C480F18F8680021451900F0C6F80020F860284600F06FFA6068054D002801D0FFF769FF0420D8
:401B000020720020A8516081E060DAE72C110020FEB500266A46304601232549050169180D7A042D02D0C96800291BD000211154401CC0B20428F0D300246846005D00283A
:401B400030D01B48210108184189476805680291002101604160042241810272C160002E02D015E01354E3E700F054F804280ED001010F4808180190C6680021304600F07C
:401B800079F801980021C160304600F021FA0126002D07D038460299A847002F02D03846FFF716FF641CE4B2042CC6D3FEBD00002C1100200EB5002005216A4600901181C9
:401BC00050810348694600680DF07FFD0EBD00001C0D0020074A0020010189180B7A042B02D0C968002903D0401CC0B20428F3D3704700002C1100200549002002015218AF
:401C0000127A042A03D0401CC0B20428F6D370472C11002030B50A4B04200A4C00210A011219157A042D06D0D268002A03D09A4201D808461346491CC9B20429EFD330BD50
:401C4000FFFF00002C1100207047000030B50020074C05460423020111190B72A5504D60401C4D81C0B2CD600428F4D330BD00002C11002030B5094C00231A011219157A04
:401C8000042D04D0D568002906D02D18D5605B1CDBB2042BF1D330BD2D1AF7E72C110020002070471CB5002469460C70142001902346054A05480DF00DFD04480068401C2B
:401CC00000D1FF2420461CBD211D00001C0D00203EB5124A0146FF2000230124126800290DD0012914D0042908D104206946009308814B8110460DF0E8FC80B23EBD6846CC
:401D0000009304814381694610460DF0D9FCF4E768460093048143816946EBE71C0D002070B545890468416800890300FFF7BAFC08280509091E22282628002005F08CFBE8
:401D40001EE0022908D0C8B22A4621460BF080FE2046FFF73DFE13E002202A4621460BF077FE2946204600F00DF809E000200DF09BF905E02046FFF7CBFE01E0FFF788F8E0
:401D8000002070BD014B0022DB681847200D002070B5448905680089022803D0032809D0FF2070BD2246094C0023A46829460120A04708E0FFF7AEFA241DA2B20023294634
:401DC000022006F040FB002070BD0000200D002070470000024800214160018041807047200D002070B50C46002186B016460391012802D0022859D116E003A9012006F027
:401E00006AFB01281BD1039D324621462846FFF744FA0095287801900220694608814E816846FFF7B5FF41E0214D002B686809D0049004A9022006F04EFB01281DD0022083
:401E400006B070BD002812D0298840182146FFF724FA28880024801980B228806988091D884206D12C801348FFF792FF03E00320E6E788421AD96C6018E004986860E27852
:401E8000A378110219430B4A698000231060E3565360032313815181A1788170E178C1706178417021780170042028800020C7E7200D00206C1100203EB515460C460228D9
:401EC00003D004280CD000203EBD0091019002206946088107484A8100680DF0F6FB07E00BF0B6FD044B0022DB6829462046984701203EBD1C0D0020200D0020014AD160D5
:401F000090607047200D0020034801688068081A0A214843000970477811002010B5FEF789FF482204490548FFF7B7F903490120C870002010BD0000942501007C150020E7
:401F400010B5FEF76FFF10BD70B5134C2368002B08D0207B1149C20705D04008400020738868A08070BD88680B4AA18880B29268814203D90A4D691A091802E0814202D2C2
:401F8000411A5118A160A080A0689842EAD30DF0B9FB00F013F870BD78110020C0102E40FFFF000010B508461946FFF7A7FF10BD704710B5FFF780FF10BD000003480021DA
:401FC000016041608160C1607047000078110020024610B5FF20002A0CD0FFF7EFFF064C0321207B0843207310010A21FFF71EF82060002010BD00007811002000B5044819
:402000000A21806848430209FFF7D8FF104600BD781100200248007B8007C00F704700007811002010B54B490868002802DA4A4B01221A70022290430860484800694549FE
:40204000C00B4031096A0246C907C90F0A4259D0012000F097FA3F480E216C30FEF73EFE3E4820218430FEF739FE3C4814219C30FEF734FE3948FF21C131A430FEF72EFE4C
:402080003648FF212F31B030FEF728FE33483449BC30FEF723FE31483249AC30FEF71EFE30492E48491CB430FEF718FE2B482E49B830FEF713FE29482C49CC30FEF70EFE4E
:4020C00026482B490830FEF709FE24482949A830FEF704FE214828498830FEF7FFFD1F4826498C30FEF7FAFD1C481921C9029030FEF7F4FDFEF7F4FDFEF7B0FEC0B20228E8
:4021000012D01FE000290BD0002101420AD0114801216030FEF7E2FD0120FEF77FFE97E70121F2E7FF2010BD15491648FEF7D6FD14481549001DFEF7D1FD124800210830D4
:40214000FEF7CCFD54200449C043891C0870002010BD000000F02E40300D002000002E40320300002F3F00003102000010520000EC160000FA12000031D000003AE3000046
:402180009956000080012E40F80F000070B50646581C80B245086D00002408E0304600F0C1F81055000A1119A41C4870A4B2AC42F4D3D80705D0D0182038D15CC47FD45496
:4021C000C17770BD30B50A4C002100195B1E07E0541864782502545C2C430480891C89B29942F5DB994201D1515C018030BD000000102E4010B5FF2000F0C4F90F49FF20BA
:4022000048700E481021801D41800121417001700A490020C91C4870FFF704FF04000AD100F010F907210648FEF756FD044807211830FEF751FD204610BD0000300D00208F
:40224000CC112E4070B5002405465B1E0AE0284600F068F8010A161971702D1D1055A41CADB2A4B29C42F2DB9C4203D1284600F059F8105570BD000070B500210A4D5B1E6B
:402280000AE0541864782602545C344346193480001D891C80B289B29942F2DB994202D1515C4019018070BD00102E40F0B50599091FCFB200217E1E0BE0541864782502D0
:4022C000545C2C43164D45192C80001D891C80B289B2B142F1DBFC0712D01C78515C24020F4A0C4381180C809C785D78001D210280B2294384182180001D80B2D9780CE0BB
:4023000059781A7809021143054A84182180001DD9789B78090280B2194380180180F0BD00102E40014940180088704700102E4010B50B490020487000F084F8002000F025
:4023400047F9002000F034F907210648FEF7C4FC044807211830FEF7BFFC002010BD0000330D0020CC112E4010B50B46062812D006DC01280CD0032801D1FFF7D9FF10BD0C
:402380000A28FCD00B28FAD105480078107010BDFFF730FF10BD1146184600F035F910BD360D0020F8B5244DAC6A0127A007234E002816DA307806280ED1286A3843286242
:4023C0001F480069F903084381B21D481030FEF785FC042000F0D6F8174802212830FEF77BFCE00718D000F0E1FE01280FD1002000F02EFF062000F0C5F81049FF20C91E3A
:4024000048707078002802D1686B384368630A4801212830FEF760FCE0050BD53078042802D1052000F0AEF80348FF2101312830FEF752FCF8BD000040F02E40330D0020B9
:4024400000002E4010B503212348FEF747FC0120FEF7E0FC20483038406A204C80076178800F890001431C480C38FEF737FC6078002808D0401E022181401820FEF7C6FEF3
:40248000C000083800E0B82081B21548FEF726FC1348032109021438FEF720FC10481149B830FEF71BFC612189010F48FEF716FC0D480321001FFEF711FC0C490C48FEF78E
:4024C0000DFC0B480B496038FEF708FC084801218838FEF703FC10BD70F02E40360D0020D8102E4090890000041E2E40FF0F000058122E40209000000849087806280BD107
:4025000048780749002803D1486B400840004863C86A01221043C86270470000330D002040F02E400148007870470000330D002000B50300FFF7B6F8080D050D0B070507A9
:40254000090D012000BD032000BD042000BD022000BDFF2000BD0000074A9168D26889B2064B92B2994204D105498A4201D1012100E000210170704780002E4033D00000BF
:402580003FE3000010B50446FEF750FC072C01D9FF2C01D102480470FEF744FC10BD0000330D00200149487070470000300D002010B5064A012805D01921C9021046FEF706
:4025C0008DFB10BD1D21C902F8E7000090002E4010B50A4A141D012808D009491046FEF77DFB08492046FEF779FB10BD04491046891CFEF773FB0349491DF3E788002E4026
:4026000031D000003AE3000070B50C460546FEF725FCC0B202280E49287804D0FF2810D04C280CD810E0FF2809D10A4AD0680004800F032801D0087807E09069000A5538DB
:4026400003E00878207070BD4F382070087070BD320D002000002E40F0B50122002830D000292ED00424420600D00524792342065B06D21800D0641C034600221EE00C2518
:4026800016466E43104D00277519AF720E4F002ABB51696007D0661EB24209D10B4E86197606760E05E05E06760E8027BE1B00E080269B198919521C2E81D2B2A242DED3FE
:4026C00000221046F0BD00000414002079020000074900200C2242435218927A012A05D0401CC0B20628F5D3002070470120704704140020F8B50F000446164609D0184D1E
:4027000018496868A04202D94018A04201D38E4201D90120F8BD39462046FEF7AFFD00281BD0324639462046FEF7B7FDF0B200210C224A43521913895668F718A74208D962
:402740000127A41B1B1B9772834206DAC01A1469C0B2491CC9B20629EAD30020F8BD0000041400207902000010B500F05DF80748054AC16806480C46FEF78FFD04492046CC
:40278000FFF76AFF10BD0000790200003C0D002088110020002070470020054A002902D0012902D002E0506000E09060002070473C0D002070B5084C154608460549A268F7
:4027C00089182A46FEF769FDA0684019A06028B270BD0000881100203C0D00203EB50A226946FFF7E7FF044606480A2200686946FEF744FD002802D00020C0433EBD2046AA
:402800003EBD00003C0D0020002802D0044A914201D2FF20704703490A61C86000207047790200003C0D00200248002141608160704700003C0D002070B5074C15460548A9
:40284000626880182A46FFF755FF60684019606028B270BD881100203C0D002010B503490A220968FFF7E8FF10BD00003C0D002010B50F4A002313600E4A13600E4B186021
:402880000E4801600E49012008600E490860000290600E490C4808600D4914300860FF381538506000F0BCF800F0CAF9002010BD680D0020500D00207C0D0020800D0020DB
:4028C0006C0D00205C0D00204C150020600D0020740D0020014610B50020002910D0094B1A689C685118A14209D25868196080188A0704D08A07920F891A091D196010BD5A
:40290000002010BD500D0020F8B50024164E671E321F3D463168136806E01422624310328A58521C1BD0641C9C42F6D36A1C14D02C461422544322460C3288500C21484347
:40294000FFF7C8FF3168002808510AD031680020103408517068401C70602846F8BD2546E4E73846F8BD0000600D0020F3B50026F64381B000281BDB1E490968884217D84C
:402980000299002914D01B4F142204463F1D54432546396810354859401C09D0FEF746FA38682F1F4159C359994203DBFEF73AFA3046FEBD214608310091465801590C202A
:4029C000704308180C220299FEF767FC0948761C001D0068C159B14200D100260549009A091D865008684159491C4151FEF71AFA0020FEBD5C0D0020002803DB074909685E
:402A0000884202D90020C043704704491422091D0968504310300858704700005C0D0020F0B500200D4A451E0346171F50600FE014260146714314680E1DA3510C4616684D
:402A4000083433511668083435511468401C635039688842ECD30020F0BD0000600D0020F3B50026F64381B0002841DB2349096888423DD8029900293AD0204F1422044652
:402A80003F1D54432546396810354859401C2FD0FEF7CCF93868415900292BD0211D009146580C21005971430F46C1190C220298FEF7F3FB11480021001D0068761C005953
:402AC0000C34C0190160416081600C48001D00680159B14200D100260849009A091D865008684159491E4151FEF79CF90020FEBD3046FEBDFEF796F9FAE700005C0D00204F
:402B0000FEB504460D4600201E49089E0860471E009001900290002C11D0486885420ED2002A0CD0002E0AD0642E08D808460C3001681C2068430C18207A002801D03846A5
:402B4000FEBD0120226020721846FFF7DDFE6060401C13D06681A6810A4827610C3067610179A94200D205710021684601810A462846029B00F040F82846FEBD00202072EF
:402B8000DDE70000680D002038B50124009400F039F838BDFEB50027164EFF433D4600240EE01C20316860430818017A002906D04068FFF721FF002801D0254603E0641C54
:402BC0003079A042EDDA681C12D01C2130684D434419FEF72BF969466068FFF741FF0546FEF720F9002DD9D1216868468847D5E7FEBD0000740D002038B50024009400F0B2
:402C000001F838BD1FB500220C49541E0A60002811DB496888420ED808491C220C31096850430818406801A9FFF7A0FE401C02D0002004B010BD2046FBE70000680D002088
:402C4000F0B50021114A4D1E174611710C3F0B46BD6016E008461C2460431668041D355114680646235014680836A3551468361DA353044616680A34335318301468491C7D
:402C8000255078688142E5D30020F0BD740D002038B500210091002811DB0F49097888420DDA0D4D04010C3529680859002807D0201D0818694600F06FF9002801D000208B
:402CC00038BDFEF7B3F828680F34015D491E0155FEF7A8F8009838BD840D0020F7B582B0002502986E1E06602E48D21C024017462D4A2C4610460C380178106805E023016F
:402D0000C358002B0FD0641CE4B28C42F7D3711C28D03401211D40180191039900F02AF900281FD101E02646F1E71F48016820460C300F521C480399026820460E301154AC
:402D400019480399026820460F3011540398784300F0A0F8144900280968085102D00024009011E001251AE00F48016801980818009900F02CF9002801D0012502E000985E
:402D8000C0190090641CE4B203988442ECD3002D05D10298066004480179491C0171284605B0F0BDFCFF0000900D0020F8B50D4600216A468C461180002839DB23490978EF
:402DC000884235DA214B04010C3319680A59002A2ED020460C300B5A801C0E5C184670438018954224D3854222D2002006E007465F43BF18AF4206D0401CC0B2B042F6D3E3
:402E00006046002814D0114E271DC8190C366A46294600F006F900280AD168460088012808D030682946C01900F0D1F8002803D00120F8BD0020F8BDFDF7F8FF30680F34CD
:402E4000015D491C0155FDF7EDFFF3E7840D0020F8B50F46002400F031F8002817D10C4900220B460C334A600EE021011D680E466A501D680C36AA53B61C1D680F31AA55D1
:402E80001D68641C6A54E4B2BC42EED31A71F8BD840D002000280BD0C01C074A81085068890053884118994203D89368516018187047002070470000840D0020F8B5064611
:402EC00000200F4D009029700C0121466846FEF787FC00280CD129460C3100980860301B001F84B221466846FEF77AFC002801D0FF20F8BD6C800098A8600020F8BD000094
:402F0000840D0020F8B5002827DB19490978884223DA174C05010C342168485900281CD028460C30085A009028460E300E5C401C0E5420682F1DC01900F064F800280CD10A
:402F40002068002445590EE0094829460C300068C01900F03CF8002801D00120F8BD00982D18641CE4B2B442EED30020F8BD0000840D002030B50D4604000BD0A800FFF704
:402F800089FF6060002805D000202570C0436080002030BD012030BD70B50D46040005D0002D03D00220205E002801DA012070BDFDF73CFF0221615E606889004058286055
:402FC0006088401E6080FDF72DFF002070BD70B50D46040007D0002D05D002212078615E401E814201DB012070BDFDF71FFF6088401C00B26080616880000D50FDF712FF91
:40300000002070BD10B5040009D0227800216068FEF74CF90020C0436080002010BD012010BDF0B500231D46002802D00224045F0AE00120F0BD46689F00F6598E4201D162
:40304000012503E05B1CDBB29C42F4DA15700020F0BD00000148007870470000980D00207CB505460024FEF755F9A8796946087000A8062229460130FEF70FF900216846A1
:4030800004F0B0FC0C2806D0072806D01F2806D0122806D006E0022404E0042402E0272400E0012420467CBD10B500F05FF9FFF739FAFFF73DFA10BD70B504460025FEF792
:4030C00029F9002C06D0A079012803D8214602F067FC00E00125284670BD01460120002902D05020088000207047000001460120002905D003485422007850430880002026
:40310000704700009A0D002010B502460D49FE204870032410460CF0FBFD002810D10CF09FFD00280CD105F033FA002808D100F013FB002804D104F0FBFE002800D1002499
:40314000204610BD980D002070B50025044600280ED0A07901280BD8FEF7DCF8A0790028204602D002F0C2FF03E002F097FF00E00125284670BD0000014610B50120002941
:4031800004D006220248FEF788F8002010BD0000A40D002001460120002903D00878024908700020704700009A0D00200148007A704700008416002038B504460120002C99
:4031C00020D0617801291DD800290BD0FF25E535FEF7A0F80C4828180088C0B22070072803D00EE0FF25CD35F2E70020694608706846FFF7B1F969460878012801D1082024
:403200002070002038BD000000102E40014A002192681047980D002008B500226B461A7026280CD0094A342852680BD0352805D1900703D50021352005F07CFA08BD1946BA
:403240002620F9E7D007F9D03420F5E7980D0020014908727047000084160020F8B504460120002C26D06178012902D92278092A20D8002905D0FF25E5352078092803D0A9
:4032800004E0FF25CD35F8E708202070FEF742F82078114F114E08280DD00020FFF798F970780128207810D00D4969180880FE2070700020F8BD0120FFF78AF90720B8817E
:4032C0000549203188800120F2E7B8810248217820308180EBE70000C0112E40980D002000102E4070B50E46050001D0002400E00C4C002C11D0E28A500609D5D107C90F64
:40330000022002F087FFE08A40218843E08204E0D107C90F012002F07DFF3146284602F065FC70BDE4150020F8B50546002004460D4E009013E022466946284600F0CAFFDC
:403340000098002801D00CF0C5FCA878214602F085FAA878214602F073FA641CE4B2308AA042E8D8F8BD0000AC16002038B51E4CFFF7D8F8042813D0052811D0062812D0CE
:4033800003282AD007280AD100206946087002460120FEF7E9FFFFF7C5F80128FBD138BD00F06BFB38BD02F0AFFA00F066FB02F02BFB8007800F0228F4D10C48418800291A
:4033C000F0D05B21095D0029ECD101210170A07D0140022002F01EFF38BD02F099FA0120FFF7D0F838BD0000E4150020BE0D0020F8B50646002402F07BFF0546304602F095
:4034000091FF03460A480021068A0DE001228A401046174628401F40002803D0002F01D1224394B2491CC9B28E42EFD82046F8BDAC1600201CB50020694648706846FFF745
:40344000BBFE01AA69460A20FEF78EFF6946042008561CBD70B50D4601F01CFB04000BD02079002808D0FDF755FFE178A0782A4602F042FC002070BD022070BD01480078D5
:4034800070470000BC1500204030C07E002800D00120704700B500F001F800BD902148430749084A40186030417F491CC9B24177D289914201D300214177C8B27047000061
:4034C000C4150020AC16002013B501F0E3FA04000BD001F080FE002807D0214601AA0A310620FEF741FF00201CBD02201CBD000010B50C4601F0CEFA00280AD001F06BFE46
:40350000002806D0224604490A20FEF72DFF002010BD022010BD0000A5150020F3B581B0074601460026029802F0DAFE0446002F01D0002500E0154D002D21D0284601F0B2
:40354000DFFA032C04D13946029802F025FF06463846029902F074F9032C06D0002C10D00121384601F0D2FB03E03146384603F00FF9284602F058F80221284602F06EF8A0
:40358000FEBD3846029902F05BF9FEBDE415002010B5044600F05AFA002804D103F0B0FD002801D00C2010BD2078611C02F0A6FCFF2801D01F2010BD02F0ECFCFF280AD0B3
:4035C0002178621C02F0CAF8044821780068026B601C904710BD072010BD0000E40D002010B503F08DFD002801D00C2010BD02F067FC03480068C06A8047002010BD000007
:40360000E40D002070B50D46044610210CF0A2FA1021601806460CF09DFA334610221946204603F09BFD102130460CF093FA02202870204604F0B2FB70BD0000F8B5044656
:403640004078217802028006870FE0781143A67809050002090D0643084601F01BFA00210546F2B2002812D0002C10D0022F0ED0032F0CD0002A0AD00279092A07D0002A56
:4036800005D0134A5A23527E1B5C9A4207D82889002104F0B8FA20460CF01CFBFF21002914D10C48224600682946436930469847C0B2FF280AD128464030817EF2B2491C4C
:4036C0008176FF232146284600F0E3F8F8BD00007C150020000E00200020704710B5044603F00EFD002801D00C2010BD2078611C02F004FCFF2808D002F03CFB0448217893
:403700000068426B601C904710BD1F2010BD0000E40D002010B500F05FF904F009FC002010BD10B5044600786178E2780843A17811430843217908436179084305D003F0B5
:40374000D1FC002803D00C2010BD122010BD204602F0CCFC002010BD10B5FDF77FFB02F0E9FD044803F038FD02F00EFB012000F003F810BD8C150020F1B586B003A8009051
:4037800005A8019028489F22817A114081726846FDF7DAFD002845D169460989C90705D0224806990068C2686846904769460989890706D5002835D11D480068816A06986E
:4037C000884700282ED11B4E0025757075737571F575357675767575B570F570B5713746F5730120CC3738731F20F880FF2130467972A0300176457600F0C4FA00242046D2
:40380000069901F093FC002803D1641C2406240EF5D0FD720749BD72B573C0310D704D704D600D7207B0F0BD7C150020000E0020E40D0020C415002070B505460E46084600
:4038400002F056FD0446304602F06CFD0121A9400A46224001400A4301D0012070BD002070BD10B50446084602F05CFD0121A140014201D0012010BD002010BD10B5FEF7DD
:4038800051FE032804D102F043F80120FEF77AFE10BDFEB51C4616460F46054601F0C4FEA878FFF7F7FD02460190334639460094284600F00DF8002808D1A8780199FFF7EA
:4038C00011FDFF2C02D138460CF004FAFEBD0000FFB585B005460E980C46FF2810D02B49C00009680A5840180179C0795278814201D9012601E09006860F6846038108E090
:403900006078A1788006860FE0780002014368460181284601F06AFC070007D021462846079A00F06BFC384609B0F0BD304600F019FD04AE0346039002AA29460096204638
:4039400000F0A5FB3C20405D002818D0284601F04DFC012813D0684600890096C0B20190A878231DFF22079902F0F4F868460089039BC2B2A878079902F034FCD3E7684698
:4039800000890021C0B20091E9E70000FC0D0020F8B5104F002500242846FFF729FD060012D00EE03046E040C007C00F07D02146284601F03DFF21462846FFF7AFFD641CB0
:4039C000E4B2388AA042EDD86D1C2D062D0EE2D0F8BD0000AC16002010B502F0D5F90020FFF7CAFE0CF00CFA002010BDF8B5002400F0B2F80123012800D10124104F002009
:403A00003E4620360425082203E0002801D0002100E031460979002907D001290BD002290BD0114681402143CCB2401C0006000EEBD07C70F8BD1C43F7E72C43F5E700002A
:403A4000C415002010B5FFF7D1FF10BD10B5044604F0C0FB002802D1601C00F001F810BD1CB500240094062269460194FDF706FC002800D1122420461CBD10B5FDF725F9DA
:403A80000446FEF74FFD012809D0FEF74BFD022805D0FDF733FA2046FDF71BF9EEE72046FDF717F910BD10B50B4681791943817103D08078114602F063FB10BD10B5827945
:403AC0008A43827102D1807802F06EFB10BD000030B50C4C0220A28A0B4B9978002901D0022906D11D785B78EB18282B01D9032002E0032900D101205105490DC0020143B8
:403B0000A18230BDC0112E40B40D002000B500F029F8002807D0012805D0032801D0042801D0002000BD012000BD014600B50020C90701D000F010F800BD014600B5002050
:403B4000C90701D000F008F800BD00000148006870470000AC0D002001480088000A704720102E400448008B410501D5042070474007800F7047000000102E4010B501F0F7
:403B800009FF044601F046FF0146204601F02AFF10BD00000148406870470000AC0D002038B50446000610D5FFF7DCFF01280CD1684601F0BDFE6846007800F023FB0120C0
:403BC00001F09AFD0220FFF73DFF600708D507480179012904D1002101712620FFF71CFB0348006801692046884738BDB80D0020E40D002070B505460C49007800240870E1
:403C0000FFF7AAFF012803D1FFF7B8FF022803D3284602F0D7F907E0284600F0EBF8040002D1034801210170204670BDB40D00208416002070B50446FFF78EFF002801D015
:403C40000C2070BDA27B01211F48002A827801D00A4301E05208520082706279012A14D0C17849084900C170184D2868016820468847207901280CD06188208803F002F8E7
:403C80002080207904280FD015E0C2780A43C270EAE72868C168E01D8847E01D02F012FA0B48808C208006E02868C168E01D8847E01D02F007FA074920798870204602F02E
:403CC0008FF9002070BD0000C4150020E40D00207C150020B40D002008B50178FFF73CFF814201D10C2008BD002914D0072069460870FFF70BFF012807D10121684600F04A
:403D0000D9F8012801D0092008BDFFF7E1FE02F09BF9012011E0FFF7F9FE012806D1684601F006FE6846007800F0A0FA02F082F9FFF712FF0028FBD10220FFF783FE0020FC
:403D400008BD000070B505460C49007800244870FFF702FF012803D1FFF710FF022803D3284602F0EDF907E0284600F05DF8040002D1034801214170204670BDB40D002023
:403D80008416002038B568460BF03AFF002801D01F2038BD01210098C90201804180002505714571857107214173857302F018F9009C202200212046FDF778FA25702A4698
:403DC0000021601CFDF772FA204602F0FBF8204602F0B6F900980BF07DFF062200210448FDF764FA02480C388560002038BD0000B80D0020F8B504460025684600950BF0B7
:403E0000FFFE002801D007250AE0064E009830602278611C401CFDF740FA3168207808702846F8BDAC0D0020F8B504460025684600950BF0E5FE002801D007250AE0064E14
:403E4000009870602278611C401CFDF726FA7168207808702846F8BDAC0D00200346084800B5834209D8184600F014FE002804D00089984201D1012000BD002000BD00002E
:403E8000FF0E0000074A9179491C8906890E917138220A4092014907090E11430843024908407047C4150020FF0E0000C006C00E70470000F8B507460E4600240D4803E08B
:403EC000002C01D0002500E005462979002905D0641C2406240EF3D00020F8BD0021204601F024F92E712046FFF7CCFF28813C700120F8BDE415002010B503F063F902228A
:403F0000002100F003F801F0EBFE10BD10B5094B40074907000F090F185A595A40185043C0086421FDF782F8002800D1012080B210BD0000DC250100F7B53D20405C88B034
:403F400015460C46002802D02878042802D200200BB0F0BD6946087200262046FFF794FA012800D00126204603A938300191009023460327A17E34333246206A03F046F930
:403F800002A8089900900B46019120463A4603A9243003F0C3F802466846007A2870204601F0B0F81046D3E7FFB587B00C4605461078694608723D20005D1746002826D02A
:403FC00000262046FFF760FA012800D00126204603A93830019100902346A17E34333246206A03F013F902A80090291D019120462B1D03A924300A9A03F090F802006846AA
:40400000007A388002D1204601F07CF810460BB0F0BDF0B505463C20405C89B016460C4600280CD0307869460873002806D000272046FFF729FA012803D003E01F2009B0D2
:40404000F0BD012703200890204604A93830019100902346E17E34333A46E06903F0D6F86846007B03A928180290009120462B46019504A92430089A03F084F802466846AD
:40408000007B3070204601F047F81046D7E7FFB505463C20405C89B016460C46002810D0084601F0A3F801280BD0308869468883002809D000272046FFF7E6F9012805D0A4
:4040C00005E000200DB0F0BD0220FBE70127204603A93830019100902346E17E34333A46E06903F093F8291D2B1D07A8129A6D4607C5204603A924300C9A03F043F8024629
:404100006846808B3080204601F006F81046D9E770B50D460446FFF7B7F901280AD0E87AA97A00020143A07801F0D6FC012808D0002070BD00222421204602F0F5FC242058
:4041400070BD28214C200155204600F0B1FB282070BD0000002801D0002000E003484030C07F012800D0002070470000E41500200146002049070ED50021084B03E000299A
:4041800001D0002200E01A461279022A04D0491C0906090EF3D0704701207047E41500200146002049070ED50021084B03E0002901D0002200E01A461279022A04D0491C0E
:4041C0000906090EF3D0704701207047E415002010B5044680346068002803D00BF08EFD0020606010BD40304170704740308170704740300170704701717047920010180A
:40420000C166704770B53C2501F08EF9040004D020460021433001F013FCFF222946204600F0E2FB002C02D0A07801F0FFF870BD10B5002801D0002000E00348002802D0DF
:40424000008903F027FD10BDE415002010B5002801D0002000E00448002804D00179072901D100F047F810BDE415002010B501F05BF9002802D0807801F0D8F810BD002077
:404280007047000070B50546008A00281ED01049F122897A1140C90618D5294640314A8A098A521C4A4392B2D10800D10121540801E0621A94B2A042FBD9FEF7CBFE0128CD
:4042C00004D1298AA878224601F0CCFC70BD00007C15002010B50023054C0B60248A944204D992001018C26E0A60C36610BD0000AC16002038B5044600200090A0790028BE
:4043000014D14020015D052901D00E290ED168460BF086FC002809D12046009902F0E2FB03481021C28A2046FFF7BDFB38BD00007C15002010B50B4604460146184602F051
:404340005FF8002802D020460BF0CEFC10BD13B5044601AA11460620FEF706F86846818861811CBD002800D10220704770470000F8B504462346401D543300909A1EA07828
:40438000911E01F0F1FA25464035A88A298A8000FCF74CFE401E81B2688A884203D96982A07801F071FF698A8C20015120460021433001F045FB27480088E88102F002FFF4
:4043C000E989891C8AB26179FFF7A0FD01F088FC02F0F8FE2A8A6179FFF798FD074601F073FC688A002806D01B49088A032212021043088202E0002001F03AFF164880389C
:4044000001886E8A002E0CD0304648431349FCF7FDFE0004000C01D0401C80B21049488002E00F4800214180288A704381B2A07801F094FEFF2228374932B9B213462046A3
:4044400002F024FCE98AA07801F008FEA07801F017FAF8BD80102E40E0112E4071020000BE0D00207FB504468034616805460E46183108226846FCF710FF3146203108226F
:4044800002A8FCF70AFF102168460BF063FB6068102108300BF05EFB60682B46083024331022694602F05AFE7FBD10B504460821FFF704FB10212046FFF700FB20790528EF
:4044C0001FD006281DD008281AD12189002003F059FB072020712046FEF7D6FF014620464030012913D00E21017000210176204600F0AEFF2046FFF76BFE2046FFF7C2FE58
:4045000010BD20890122002103F020FBE1E70521EAE70000FFB581B01F4604460821FFF7CDFA10212046FFF7C9FA2079082803D0092804D0042203E00422012501E0092228
:404540000025204600F03EFE264600204036307022712046FFF73CFE0398002D02D0012808D00BE001280AD120890022029903F0EDFA04E02189029803F004FB012700208D
:404580003076012F04D0204600F062FF05B0F0BD02983073204602F0F3FA054605480121C28A2046FFF77FFA002DEFD109202071ECE700007C15002070B50C460546FEF7F9
:4045C00063FF012809D108212846FFF777FA0023012221462846FFF79DFF70BD10B5044600F0F0FD2046FFF7F3FD00214034217010BD70B505461A24FEF746FF012809D168
:4046000008212846FFF75AFA0023012221462846FFF780FF70BD0000F8B50446002000900E4668460BF0FCFA002801D00D20F8BD8420005908212030009D00F026FA2046DE
:404640000421383000F021FA002E02D1204600F0F5FD2946204602F0D4F90E480821C28A2046FFF720FA204600F063FF25464035002808D0204600F023F8002801D0092059
:4046800028700020F8BD08202870204600F0CCFFF7E700007C150020014610B540310A460978082906D0092907D00A2901D100F091F810BD0B20107010BD00F001F810BD46
:4046C00070B50446007925464035052805D0062803D008280FD00C2070BD03220621204602F022FA0D480821C28A2046FFF7DBF91120287010E006202873204602F040FAC1
:404700000646AA8A0A20424301212046FFF7CBF9002E01D109202071002070BD7C15002038B504460020009068460BF079FA002801D00D2038BD2046009D00F0BDF9082061
:404740002071204600F07AFD2946204602F08CF900213D2001550F2040210855204600F063FF002038BD00B5024600F02BFD10214032117000BD10B50446FEF785FE01285B
:4047800009D04020005D112805D100231A4606212046FFF7BFFE10BD10B5FFF786FE10BD38B504460021684600910BF039FA00280CD12046009902F0D8F905480821C28A6A
:4047C0002046FFF770F90D204034207038BD00007C15002038B504460021684600910BF01FFA002801D00D2038BD2046009902F0B1F905480821C28A2046FFF754F90C2025
:4048000040342070002038BD7C15002000787047F8B5002569460D70002801D0002400E01F4C002C18D0204600F0D5FC002813D0207903280BD005280CD026464036B18A0E
:40484000A07801F095FCB078012806D01DE0042020711DE006202071F8BD0021204601F0ECFD274680373868002802D00BF046FA3D600020B0702079072802D12046FFF72E
:4048800001FD0221204600F0E9FE20790428E3D1207A694608703420FEF7BEFCF8BD0000E415002010B54C22115400F04CF810BD10B50446FF21FFF701F909202071A07805
:4048C00001F07CFC10BD000038B5FF216A461180002801D0002400E0084C002C0DD011460620FDF741FD684601882046FFF72FFD03480068C1692046884738BDE41500204C
:40490000000E002010B504468079002809D022214C200155FF212046FFF7D0F8204600F012F810BD10B5037902464032002B03D01173092B02D003E0002100E0222111739C
:4049400000F001F810BDFEB504460089002700902781207926464036002817D0012815D002280AD112E002AA01A9204601F036FD002807D101980BF0B7F9204601F056FD3F
:404980000028F0D02046FEF7CFFCB776254680352868002802D00BF0B1F92F606868002802D00BF0ABF96F60317B002919D0009800F064F8A078002100F07EFF2046FFF702
:4049C0009BFAA07801F072F8A07800F02FFDFF212046FFF773F80B20FFF734F800F068FCFEBD1F213173E2E7F8B517460E46054602F0E4FB04003CD020460C3001F010F866
:404A00002046062200211830FCF750FC2046062200211230FCF74AFC1648224600683946436A28469847074626702846FEF72CFD012148406070002D10D02889608028467A
:404A40004030C1782171002E0FD169796171018AE180418A2181808A608106E00648008BC005C00F2071002060803946204603F00CF8F8BDE40D002000102E400A4610B5DC
:404A80000146002003F01EF910BD10B50AF03EFE10BD000000B50146FFF708FA002801D0002000E00348002802D002898A4200D0002000BDE415002038B5044680346068EE
:404AC000002806D168460BF0BBF8002801D100986060606838BD000010B5014600F086FB0128887802D0FEF7D9FC10BD90214843024940186030007F10BD0000C415002089
:404B000070B5054604464035A87F012811D1A1789020084A484380186030067F3046FEF78BFE002805D10220A877A078314601F067F870BDC415002010B50C4CA07A00282A
:404B400013D0FEF725FF0A48027F417F408B00F0B7FB012809D10020A07200F0FFFE05498989090B01D000F03BFA10BD90160020C4150020A0102E4070477047490510B582
:404B8000490F0B00FCF78EFD060704080C0C0F073E21FFF787FE10BD0821FFF7C3FE10BDFFF7D1FE10BDFFF7ADFE10BDF8B507460025002D01D0002600E0204E00F092FE68
:404BC0003046403044890021418100F095FE304600F001FB01282BD1A00702D52846FFF717FEE00602D52846FFF76EFEA00601D5FEF7CEFE600601D500F014FB200602D51C
:404C0000284600F01DF8600702D5284600F02CFA380402D52846FFF719FB780402D52846FFF706FBE00703D021463046FFF7A6FF6D1C2D062D0EBCD0F8BD0000E415002079
:404C4000F8B5002801D0002400E0284C002C4BD025464035A878012846D1FF278820493700593E46002805D02149897A890601D5878AC68A2046FEF707FC012834D002F0B7
:404C8000A1FA2A8A6179FFF741F9009001F01CF800983346283081B23A46204601F0F6FFE98AA07801F0DAF912480188688A124E002810D048431149FCF7A8FA0004000C88
:404CC00001D0401C80B27080A07DC107C90F002001F0A0FA01E000207080288A698A484381B2A07801F03AFAF8BD0000E41500207C15002060112E40BE0D002071020000B0
:404D00000149096809680847000E002070B50D460026194A0146002801D0002401E014462034002C26D0204600F060FA01280AD19020484380186030007FFEF77DFD002887
:404D400001D101F09DFE0D48006881692046884700280CD020464030817EA94202D3491B817600E086762089294602F04CFF204600F05AFC70BD0000C4150020000E0020D4
:404D800070B503460088FFF785FE040013D000F022FA00280FD02079092819D02546997840352973204601F0EBFE0646A878012803D0AA8A02E0022070BDEA880A2042431C
:404DC00001212046FEF76FFE002E01D109202071002070BD0EB5002217216B460292198100905A810120029B00990BF027F80EBDF8B518480024807A002822D1164E002550
:404E0000B089000B22E0204600F02AFE1249A039401807882A462146384600F051FA012810D00E480122478305770A4944778A72002D01D0002000E02030002801D000F0FA
:404E4000F3FBF8BDB089000B641CE4B20028DAD1F8BD000090160020A0102E40C415002010B50088FFF716FE002809D0014640310C460978082905D00B2903D00C2010BDE7
:404E8000022010BDFFF71CFC002801D009202070002010BD70B503460088FFF7FBFD040008D0254640352878082805D00B2803D00C2070BD022070BD8420005910220830FC
:404EC000991CFCF7EAF92046FFF7CCFA2878082804D02046FFF77EFC002801D00A202870204600F0A1FB002070BD000010B50C46002121700088FFF7CDFD03000BD000F0B2
:404F00006AF9002807D00948F121807A0840C00603D4112010BD022010BD022020701A8A1889002102F0EAFE002010BD7C150020F8B50F46002100910088FFF7ABFD040072
:404F400012D000F048F900280ED0E079410641D4617E02264A07002A08DB8907402500291ADA2843E07135E00220F8BD02F026F90021017021894180A1898180217E4170BB
:404F8000E189C1803E7005460178134802F090FB284602F057FE1DE0204600F02DF9012806D068460AF03CFE002803D00720F8BD2A20F8BDE07900992843E071204601F012
:404FC00009FE607E0421304360760448C28A2046FEF769FD0020F8BD1D0400007C1500203EB500220F236C460292238100910190628169460EC900200AF020FF3EBD00006E
:40500000F8B50F46054600F08FFA040025D003202071254600264035EE76E6702046FFF7A7F901F007F80920FEF70CFDA07800F02BFD0121204600F011FB2E706E70AE70DC
:405040003A4600212046FFF7CFFC0649887B401C8873A078FFF754FEF8BD284601F0AEF8F8BD0000C415002010B5002801D0002000E0094800280DD0014640310A4649781A
:40508000022901D100215170807DC107C90F002001F0C0F810BD0000E415002070B503460D460088FFF7F6FC04000BD000F093F8002807D01248F121807A0840C00603D4F0
:4050C000112070BD022070BD20464030418A008A491C41430804C10C5888884201D2122070BD20822079072802D12046FFF7CAF8022028702089002102F028FE002070BDF6
:405100007C150020016A491C016204D1817E491C4906490E81767047C169491CC16104D1C17E491C4906490EC1767047F0B5074687B003A8009005A800260D460190002FF6
:4051400001D0002400E01B4C002C05D06846FCF7FBF8002803D00BE0022007B0F0BD68460089C00704D1902200212046FCF79EF8114829460068826820469047050016D11A
:40518000A77066762746267140373E70204600F019F8204601F046F9084820820848BE77807AF121084000D001202075E682E8B2D3E70000E4150020000E0020B80B0000BF
:4051C0007C150020002101628176C161C17620300177417770470079002805D0012803D0022801D001207047002070474030807F002800D00120704740300078002807D0B1
:40520000012805D0052803D00E2801D0012070470020704710B5807801F084F8002800D0012010BD10B500F099FB03498989090B01D0FFF7D5FE10BDA0102E4070B50546FA
:4052400004464035A87F002825D1FF206075A0789021154A484380186030417F9023491CC9B24177A0785843104B8018DB896030994201D300214177A07890214843801842
:405280006030467F0677A1783046FEF7D5FA002802D00120A87770BD0220A877A078314600F0AEFC70BD0000C4150020AC1600200020401C0006000EFBD0002070470000BE
:4052C000F0B515468207920F85B0000A02926A469080002D01D0002400E0524C002C28D0084600F0BDFB07466846808800280BD00298012843D0022841D003280BD03D20BD
:40530000005D012870D087E04748381801882046FFF71DF880E00020029002A80AF060FC002807D03D20005D012878D12046FFF7E9FE74E06846029E838832460021384623
:40534000FCF724FF3848381801882046FEF7FFFF284600F0A1FA01AA21463046FEF7ECFD002806D030460AF0ABFC3D204C21085528E0F5773146204601F0BAF94FE0002086
:4053800000902089039068460AF01AFC002802D0002005B0F0BD6846009E8388321D00213846FCF7F3FE2048381801882046FEF7CEFF284600F070FA25464035287E0028DF
:4053C0000CD103E02046FFF773FA28E001AA21463046029BFEF7E8FD002806D030460AF065FC3D202873EDE713E00298FEF7BEFF01460398307003980901000A08437070E7
:4054000068468088B070000AF0703046FFF7E2FC05E02046FFF776FE284600F03DFA0120B7E70000E415002000102E4010B5074A917B002901D0491E91730021FFF776FE30
:40544000002801D0002010BD012010BDC4150020F8B5074606464037B87F00282DD0B078902100904843234945186035287F0099FEF7F7F901281ED0287F401CC4B21E48D9
:40548000C089A04200D800240020B877FF276F772F77A87702460146009800F01DFD717DFF2903D0304600F07EFF777501F0E8FA0025114F19E00320B877F8BD00200090B4
:4054C000224669463046FEF705FF0099002904D0FF231A463046FEF7DCF9641CF889E4B2A04200D800246D1CEDB2F889A842E5D8F8BD0000C4150020AC16002010B502466C
:405500000021084B03E0002901D0002000E018460479944204D0491C0906090EF3D0002010BD0000E415002000B50120FFF7E6FF00BD10B5044601F041FE218901808034B5
:405540006168416061682831816002F035FB10BDF7B50646087982B00C46092807D0A078F0770846FFF742FE012806D010E030460AF0BAFB022005B0F0BDA1789020294AF3
:40558000484380186030007FFEF756F9012810D0A078FEF7DFFD01280BD037780121304601F01AFA25462035062F38D00B2F0FD107E06846027C21463046FEF7BBFE0D2051
:4055C000D9E72046FDF760FF012801D1002028772046FFF781FA054604AA21463046FEF718FD01205F2108556946097C002001910090A07833463A46294600F0ABFA694689
:405600000A7CA0780323294600F0ECFDA0782946FDF768FE30460AF067FB0020ABE70120D5E70000C415002010B502464032937F0021002B03D1927E002A00D00121064AF6
:40564000927A002A00D000210279092A00D10121807800F0FFFD10BD9016002070B50C460546FDF711FF00280BD1012C06D92879092806D02846FFF7CDFD0446002C02D0F7
:4056800004E0012402E0A87DC007FAD1A87DC107C90F204600F0BEFD70BD0000012807D0082804D104480282034808300180704701488038FAE70000A0102E4001490881E2
:4056C0007047000000102E4010B50446FF20F130012C01D1FF20D530002200F0EDFD044A108A044980B2A0430880108210BD000000102E40C20D0020034B198A034A89B2F0
:40570000814311801982704700102E40C20D002010B50446012802D0082C07D102E0FF20D53001E0FF20F13000F0BEFD0348018A034A89B221431180018210BD00102E404C
:40574000C20D0020034B198A034A89B2014311801982704700102E40C20D0020F8B505460120A84086B214460F46012231467C2000F0A2FD3A463146782000F09DFD60788F
:40578000267800020643E078A2780002024360792379000203430C2045430D2080010549281844182680001D44182280001D40180380F8BD00102E40CB065B0E0343480981
:4057C00001021943D00108430121C902084301490881704780142E404278037812021343084A1382C37880781B021843908248780B78000203431383C8788978000201437F
:405800009183704700142E40024A1080000C90801181704700142E40044A002180180288491C89B21029FAD37047000000102E40024A10820148803081817047A0102E403E
:4058400010B5054A1082084600F05AFD024A0021A03A8018018010BDA0102E4010B50B46044600F005F819462046FFF7E1FF10BD024A10820148803001817047A0102E40BF
:4058800010B504490882FF20002220211D3000F013FD10BDA0102E40000202494D3008807047000000102E400249888A0422904388827047C0112E4010B5084B074C020246
:4058C000A03B0029208202D075321A8010BD04490020088088807632F7E70000A0102E40201A2E4000B5034908884880FFF704FF00BD0000C20D002000B502484088FFF71E
:4059000021FF00BDC20D002010B5FCF7F5FD10BD014952200880704700102E40884201D8081A03E00022D243101A401880B270470021017070470000074880880649203919
:40594000098B884201D8081A03E00022D243101A401880B27047000020112E400148008AC0B27047A0102E4070B5084C049D2082074804890548603006880E8001891180E4
:40598000808818806007400F287070BDA0102E40E0112E400148008970470000C0102E4000280FD00D4A108B0870000A4870908B8870000AC8700948203000880871000A54
:4059C00048717047064A10880870000A487090888870000AC8701089F0E7000040102E40C0112E4000B5024A00F004F800BD0000FF7F000000B51346FFF790FF984201D8E8
:405A0000022800D2002000BD0148008A70470000001A2E40014880887047000020102E40064B1A8999891B8A0270120A42708170090AC1700371190A4171704760102E40C7
:405A4000012904D00549098BC90B017070470349403109898907C90FF7E7000000102E400148408970470000AC160020044A10820448028980894843101880B27047000030
:405A8000A0102E40AC1600209021074B414300B5C918FF2260314A770A7700228A77114600F01AFA00BD0000C415002090225043074A10B58018FF216030417701770021AD
:405AC00081770448418EFF201D3000F0EDFB10BDC41500207C15002000B5044A1082034880308088022200F003F800BDA0102E4010B50023884201D8081A03E00024E4437B
:405B0000201A4018044980B2884201D8824200D90123184610BD0000FF7F000070B55478157824022543D47888232602947834435679127936023243002900D09823044991
:405B400008820348A038181805808480028170BDA0102E40FFB581B014460D4607460A9E0B9BFFF783FF002E0AD0009333460021049AFCF79BFB05484019C45505B0F0BDCF
:405B80000021049AFCF778FBF5E70000C60D002070B502460448054D808808242C800B460021FCF769FB70BDAC160020A0142E4010B52124024664010449532008801023DA
:405BC00000212046FCF758FB10BD000000102E40417802780902044B0A431A83C1788078090208439883704760142E40034A1082802001430148803001817047A0102E40C8
:405C0000054A1082044A6032908B0009000108439115084390837047A0102E4030B500210F4B0A46012809D0032802D005280AD107E04021198102210A2204E004210C223B
:405C400001E004210D221882054C20342088C0B205460D42FAD022800021198230BD000080142E4010B5044607480482074801808280032189030820FFF74AFD20020249AD
:405C80007530A039088010BDA0102E40201A2E40054A1082044A60321183000202494B30A039088070470000A0102E40054A491E1082044A60321183000202494C30A0399A
:405CC00008807047A0102E400349884200D908460249088070470000FF0F000060112E400349884200D908460249888070470000FF0F000060112E408823002900D0982300
:405D0000084908820748A038191808881070000A507088889070000AD07008891071000A50717047A0102E4010B51446024606480B46C0880021FCF785FA012C02D103491D
:405D40005420088010BD0000AC16002000102E40064A11880170090A417091888170090AC1700349542008807047000080142E4000102E400121814010B589B200227C206E
:405D800000F09AFA10BD0000FEB5FF210120FFF79BFCFF210820FFF797FC3020FFF7ACFC3F48802101803F483F4D00784007400F02286FD001286BD1002028800022114679
:405DC0000320FCF7D1FA394E3949B08D8882384F002420373248A0300482308F38822046FFF764FE641C2406240EF3D0B08F38832E48103000F052F971693069019100904A
:405E000069464879C021084369464871684600F06DF900F055F82548214C40304188A03421838188A1831E49C088C0318880708E38802048002606823920FFF783FC184FBC
:405E4000532038801C490720088354203880E020FFF7E2FCE820FFF7DFFCF020FFF7DCFC0020FEF749F813488682282101838015A0810F48403086815B2038800948007823
:405E80004007400F022807D0012801D10B482880FEBDFFE7032090E70848C01CF7E7000000102E40AC160020001F2E407C150020C0112E40001A2E4080142E40E0230000A6
:405EC000044800218183018302497420603908807047000060102E40074B1882064B6033988B00090001084399158843002A01D11021484098837047A0102E40F3B50D22DB
:405F000084B0920100924A780B78120213430393CA788B78120213434A790979FF20120211431A4A8C46918B9E460291118B01911649742260390A80154900220F7821E031
:405F40000121124B9140009C603BE3181D8889B21C881B88039E6E407546654064462E435C4026430CD1029B194209D00199D140CB070499DB0F8B4202D1104606B0F0BD9E
:405F8000521CD2B29742DBD8F8E7000060102E40BC15002030B50949FF208C8B084A00210125137805E02A468A40224204D0491CC9B28B42F7D830BD084630BD60102E404B
:405FC000BC15002010B50446E020FFF725FC20782246401CC3B20021E020FCF7F3F810BD42790021012A02D901214171090342790A430179042914D049001143827B032AD1
:4060000001D8D2001143427B52010A43817909021143012252031143054A118300889083704711460122920211430222E5E7000000102E4000B50120FFF75EFB014941200A
:40604000088000BD00102E4000B50120FFF77AFB01494020088000BD00102E40024A10820148603081817047A0102E4010B5044C208204488180028183815143018210BDB2
:40608000A0102E40A0132E40034B1882024820388180028070470000A0102E404178027809020A4306490A80C2788378120213438B804279007912021043088170470000D6
:4060C000C0112E404178027809020A4306490A81C2788378120213438B81427900791202104308827047000060102E40417802780902084B0A431A83C178827809020A4391
:406100009A8341790079090208430249203108807047000040102E404178027809020A4306498A80C2788378120213430B814279007912021043888170470000001F2E4029
:4061400010B50446E820FFF767FB20782246401CC3B20021E820FCF735F810BD024A10820248818370470000A0102E40001A2E40024A10820148603081807047A0102E40B3
:4061800010B5044688000521FAF750FF04490C8204498880200202497230A039088010BDA0102E40001A2E4003490882000202497330A03908807047A0102E4003490882FD
:4061C000000202497030A03908807047A0102E4003490882000202497130A03908807047A0102E40F8B505461C4617460E46084600F086F8054AB90021431582034AA03A91
:4062000080180180024880194455F8BDA0102E40CB0D002030B50E4C238A01251A46012804D0022804D000290BD00CE02A430AE0002908D12A4322825008400020821A469D
:4062400001E05A0852009A4200D0228230BD0000001A2E40054A1082044A6032908B4023984389010143918370470000A0102E40044A118A0223002801D0194300E09943D4
:4062800011827047001A2E4000B5064A1082054860300181002901D0012000E00020FFF7E7FF00BDA0102E40024A801802880A430280704700102E4070B5084BC5182C88C9
:4062C0000023080003D104E040085B1C9BB2C607FAD08C439A4022432A8070BD00102E40024A1018405C8007800F7047CB0D0020024908820148803080897047A0102E4034
:406300008000FF3041307047044B02461B8AFF208B4202D902484018805C7047AC160020C60D0020024908820148803000897047A0102E40174902460B680020002B08D10E
:406340000A605207520F012A04D0022A10D0086012207047112292018A80CA80032252020A810122D2024A8140228A8105220DE0092252028A80CA80012252030A81032241
:40638000D2024A81012252028A810422CA810A8270470000AC1600200A4600B501461046FFF7B2FF00BD38B50C46054600216846009109F035FC002804D1009928464C704C
:4063C00000F0FAFB38BD10B5044680780021FFF745FE01212046FFF741F910BD436E002B0CD00B60014660318B781370826E4266CA788A700021816608467047FF207047A5
:4064000010B50346446E6033002C04D0846E002C04D0FF2010BD41669A7001E08166DA70002010BD0021416681667047406E002801D000207047FF20704770B50446C07919
:406440000D46810610D5DF210840E07100F0B6FE0570218941804034218A8180618AC180A18A018101F0E4FA70BD000010B50446FEF7BCFE01280AD1A1789020054A4843E6
:4064800080186030007FFDF7D7F9012801D000F0F7FA10BDC4150020F8B50E460446FCF7F3FF01282BD02079042801D0072825D1F079B77900020743A0783946FFF70CFB48
:4064C00025464035012820D03A46711C204600F084FA02212046FDF786FEA07DC107C90F0220FFF797FE688A002807D0E87E002804D1032109020820FFF70AF9F8BD0122DB
:406500002421204600F010FBF8BD282028732046FEF7CEF9F8BD70B50D460646FDF7F8FD002852D120213046FDF7C8FA3446687840346073E87820220002E081A9780843CF
:40654000E0816879010228790843218A814203D0F1791143F1712082E8790102A8790843618A814203D0F1791143F1716082687A0102287A0843A18AE180814203D0F17936
:406580001143F171A082A08A218A8000FAF74EFD401E618A80B2814200D9608201213046FDF724FEE87AA97A000201430022304600F02AFB608A002807D0E07E002804D10F
:4065C000032109020820FFF7A3F870BDF8B50C4605460027FCF758FF012847D0284EB07AC00709D02846403000900078002806D0102803D01F212CE01A212AE00127284635
:40660000FEF75AFA002823D02E4680360822611C7068FAF742FE7068617A20300172A17A417270682146183008220B31FAF735FE21462846042213313430FAF72EFE394688
:406640002846FDF7E9FF002810D1002F0FD012E007210322284600F067FAF28A08212846FDF721FA11212846FDF7C3FDF8BD06212846FDF7C1FD009801210176F8BD000063
:406680007C15002010B5FEF707F810BD38B504460020009020790D46042801D007281BD12046FCF7F1FE012817D0684609F0B8FA002811D10C486A78807A00991040F122D1
:4066C00010402075607E082210436076204600F0B3F92046FDF7D3FD38BD08222421204600F022FA38BD00007C15002070470000F3B581B004460298FEF788F80646204641
:40670000FEF769FD002828D0162E04D32046029900F0F7F821E025464035287800220300FAF7C0FF0E1414140808141414080808080808140298154B017800201F5C8F42D4
:4067400004D0401C0728F9D3002A0AD00F49B00008310A58204602999047029809F0B0FAFEBDA078FFF72AFD002301223D212046FDF7D0FE3D2028732046FFF724FE029866
:4067800009F09EFA2046FEF7DEF8FEBDEC25010070B50D460021002801D0002400E00C4C002C14D020464030C177807F032802D12046FEF74DFE2046FFF758FE162D04D2D0
:4067C0000449A800095820468847FEF771FD70BDE41500204C26010010B5014640310C4609780E2903D1FDF79BFF0120207610BD10B54021095C0F2901D1FDF7B4FF10BD7C
:406800004021095C0F2902D1002120304177704738B5044600220E4800920D46807AF1210840C0060ED52046FEF7E6FC012809D0684609F0F5F9002803D12046009900F057
:406840005DF938BD2946204600F05BF838BD00007C15002010B51021FDF730F910BD10B54978FDF7A9FE10BD10B5FDF784FF10BD012120304177704710B54021095C0C2997
:4068800001D1FDF78DFF10BD10B54021095C0D2901D1FDF781FF10BD70B5044600790D46052803D0062801D0082802D12046FDF795FE68784C21085509212046FDF79CFCF5
:4068C0002046FFF780FD2046FCF7DEFD0128A07805D0FFF773FC2046FEF7A6FE70BDFFF777FCF8E710B50446FF21FDF7E7F816214C200155A078FFF761FC2046FEF794FE49
:4069000010BD70B50C460546FEF770FC002802D02078687570BD21782846FFF744FD70BD70B5054648780C46032802D12846FDF760FE6078122803D110212846FDF7BEF8F1
:4069400003482146006842682846904770BD0000000E0020704738B5044600200D46009004212046FDF7AAF868782076E8780002A081A9780843A08168790002E081297935
:406980000843E081607E04210843607680070CD4684609F045F900281CD12046009900F019F9607E022108436076E079410611D5BF210840E07100F001FC00210090017075
:4069C00021894180A1898180217E4170E189C18001F038F938BD7047704770B50446C07815460A4600280AD00020E070C1B2A078FFF794F8A0782946FFF74AF970BD0120A2
:406A0000F3E770B50546042008700C468420415908222031601CFAF740FC29462046042238310930FAF739FC0D2229462046FEF78FFD002070BD000070B5054609200C463C
:406A4000087008220021601CFAF730FC287D607004480922C07AA07029462046FEF778FD002070BD7C1500200B4610B501460B20187001221846FEF76BFD002010BD00006C
:406A8000FEB50024164F03E0002C01D0002500E03D462846FFF7CAFC00281BD15F20405D002817D16A4601A92846FFF797FC002810D1019869460A7806782946FEF748FD7D
:406AC000022E07D1A8780121FFF7C4FB09212846FDF792FB641C2406240ED5D0FEBD0000E415002010B50B46122119708178D977014601221846FEF72BFD10BD10B50B4646
:406B0000132119708178D97706490989C90603D1C18A40221143C182014601221846FEF717FD10BD20112E4038B50546002000900C46684609F074F8002801D0072038BDE8
:406B400000980D210170447002222946FEF700FD002038BD0B4610B501460520187001221846FEF7F5FC002010BD0B4610B501460620187001221846FEF7EAFC002010BDDE
:406B800038B5054600200090684609F049F8002801D01F2038BD009C022020704C20405D6070A878E0772846FFF70DFC022229462046FEF7CDFC38BD10B50B46072119705A
:406BC0008178D977014602221846FEF7C1FC002010BD000010B50B460A49044608880C221A704A795A709870000AD870C8881871000A5871062221461846FEF7A9FC0020AF
:406C000010BD00007C150020F8B50446403417460E460546E289617B8078FFF735FA002F0DD100F0CFFAE2896979FDF76FF9FFF757F8608A002800D00120FFF719FBE388DF
:406C4000A08A984200D90346628A218AA878FFF70DFAE089E188C0080A30081881B21920C001814200D90146A878FFF781FAA8783146FFF71BF8A87DC107C90F0220FFF728
:406C8000C9FAF8BD00B500F017F800BD10B504468818C018FF302D300649FAF7C7F94034401C228A81B28A4200D211465000401AE08210BD7102000040184008704770B56C
:406CC00005461446100702D5A8B2FDF76FFFE00702D0280CFCF764FF70BD70B5044660C8FCF744FBFBF730F92089C01F0300FAF7D9FC0C07140C181B1E0C0C210C110D0CAD
:406D0000294630466289FFF7DAFF70BD284600F035FC70BDFDF710FF70BD2846FCF78EFC70BDFCF735FE70BDFDF726FF70BDFDF724FF70BDE8B2FEF75BF870BDF3B589B0B6
:406D40000021069103910491009101910291C7490C8920400590600713D5C4484030058A0598400708D50695A80803D1FBF752F9012801D101200490294600220420FEF711
:406D80008DFCBB4E210730462030C036089000297EDAB648A0300189B648CA0704D0428907231B029A43428142890D460A43428100220820FEF772FC0598000768D508983B
:406DC000079000200290AA482A062030014680314030039501910090002A02DA418A0198C160680637D50198C068002833D00098C17E00292FD14178022902D080780128EE
:406E00000ED1A804400F062814D0012812D00798807DC107C90F0020FFF7FCF901200290954F387800280DD00120FFF721FA012078700AE00798807DC107C90F0220FFF74F
:406E4000E9F9EDE70298012805D18C49088A0322120290430882E8062BD500984178022902D08178012911D10199C96800290DD0C07E00280AD1FEF75FFD022806D807987B
:406E8000807DC107C90F0220FFF7C4F9022000E018E0FBF787FB3079C00704D078480122C1681143C16077480078002801D0012004901020854303D1FBF7ACF8012801D1EB
:406EC00001200490E00774D06848203005880598C0070DD0039928040843039002212846884303D1FBF796F8012801D101200490680712D5644F798800290ED03888401CB1
:406F000080B23880884208D3FEF7CEFCFFF792F800203880788001203871A80744D50220FBF740FB534F4037B87DC00710D0787E00280DD0387EF97D884209D2387E5349BF
:406F40008001096840181130FFF7E6F8002078763078012812D1E020FEF75EFCFCF7F6FD474F02467860037800215B1CE020FBF729F9786808F0AEFE002030707078012889
:406F800012D1E820FEF748FCFCF704FE3C4F0246B860037800215B1CE820FBF713F9B86808F098FE00207070294600220120FEF775FBE00605D50120FBF7E4FA1020FEF719
:406FC0007DFBA0062BD52D48E0380689808B089D8006C70FFEF7DEFC294908800120FBF7D1FA2B4900200870002E15D0002F13D1214E70700120FFF73BF9E88A01060BD57F
:407000003178002908D1C107C90F0120FFF702F9E88A80218843E8822020FEF74FFB600602D54020FEF74AFB0720694608810698009003980190059848810498002807D09B
:4070400069460EC90A9800280CD0002008F0D2FE0B4CE068002803D0FCF7D8F80020E0600BB0F0BD002008F0E9FEF1E700102E40C415002024160020BE0D0020E0112E40E5
:40708000D00D0020F60D0020B80D0020E80D0020AA0D0020F0B587B0054605A81E461746019100900C9C04AB06AA02A903A800F0C8F82846FEF77CFD21463046FEF768FD08
:4070C0006846017A0398FEF79FFB05A904A8FEF783FB6846027E21463846FEF76DFB07B0F0BD000070B50548C4782046FCF71DFD05462046FDF73CF8284370BDC415002011
:4071000070B5054884782046FCF717FD05462046FDF746F8284370BDC4150020F8B5069E1F463478042C17D3231FDDB23B460095FFF7B0FF3819001FFEF74AFD0520FEF732
:407140006DFD0446012229460798FEF7EDFD3570E00701D00020F8BD1F20F8BD70B51C4615460E46FEF724FD29463046FEF710FD0320FEF753FD012229462046FEF7D4FDCC
:407180001F2070BDF8B5069D089E2C780094FFF781FF0120FEF742FD0746002221460798FEF7C2FD3046FEF7D3FD241D2C70F80701D00020F8BD1F20F8BD00000048704791
:4071C000C016002008B56A4600210B20FBF7CCF86846007808BD000010B50B4C094923460833A160002142189278002A00D05A54491CC9B20429F6D3FF21A0689A314843AB
:40720000A06010BD04030201C415002070B5059C049D2070060A6670060CA670000EE0704806D101400E0843207104221946601DFAF733F82046042229460930FAF72DF869
