:400000000040002011000000E9050000E905000008B500F0F1FAC04638B51222274B1A6001F0E8F8264801F00FFA012001F002F9302001F001F8234A234B1A60234C8025DF
:40004000ED052560224A116802230B431360214A214B1A600022214B1A60214A136808218B431360FA20C00001F090F81D4801F083F8E82252011C4B1A601C4B1C4A1A60EC
:40008000882189011B4A11601B4A1A60802212061A4B1A608022D202194B1A604022194B1A600132184B1A600820184901F014F8082000F0FBFF256038BDC0463000104083
:4000C000001BB7000600008004010B400C020B4078002E402D3E00007C002E4064F02E406CF02E40DC050000000301400000014040FF00800403014041FF008008010B40B7
:4001000000010B4008010140040101404D13000010B572B600222A4B1A60002410E0294863001A195200821891881B195B001A5AC31858880004104300F0BCFA0134E4B2DF
:40014000012CECD9204A214B1A60EE221204204B1A6099231B041F4A13601F4A13601F4A13601F4B197802220A431A701D4802783C218A4328390A430270197816220A438E
:400180001A702023184A13601849194A1160194A13608022184B1A60B022D203174B1A6080221202164B1A603022164B1A60164A164B1A60FFF730FF00F06CFA10BDC04649
:4001C0006CF02E40182E0100000099EE000002400003024000500F4020500F4030500F4000700F4001700F40000004400018DB0008000440180004400002044008020440C1
:400200000C020440000304400040DA000803044010B5064C2378002B07D1054B002B02D0044800E000BF0123237010BD5010002000000000142E010008B5084B002B03D07A
:400240000748084900E000BF07480368002B00D108BD064B002BFBD09847F9E700000000142E010054100020A80B00200000000008B562B6012001F0DBF8012001F0CCF894
:40028000012001F0BDF800F035F91B4800F06CFC01F0C6FD194B1B78002B01D000F0F0F8174B1B681B78002B02D0164800F036F801F09EF80028EBD1134B1B78002B09D1CD
:4002C00000F0AAFC01F094F80028FBD0002001F0AFF8DDE700F03AF90A4B25221A700B4A12885A700A4A12889A700A4A1288DA700122094B1A70CBE75D0300008410002083
:4003000008220020701000206E10002086100020881000208A1000206C10002000B585B00C4B1B78002B13D00A4B5B78002B0FD101A910330B81019004338B80064A137835
:400340005078000218430DF015F9024B00221A7005B000BD6C1000201822002010B50C1C28281DD002D8052816D07CE0412802D04C2825D077E03C48022201F010FD0122B5
:400380003A4B9A70012001F053F8002001F044F8012001F035F866E00A78344B5A7062E0002000F039FC0022304B9A70002001F03FF8012001F030F8012001F021F852E0A7
:4003C000012001F035F8012001F026F8002001F017F8322000F0B8FEA3899BB2112B10D163681A78224B1A7000225A7021481132028103600223838000211B4A3E330DF0F2
:400400005BFEA3899BB2102B1DD107E06268D15C164AD21811710133DBB200E00023228999B29142F2D31448102303810F4B043303601423838000210B4A2C330DF03CFE78
:4004400001220E4B1A70084A13785078000218430DF0E6F8012000F0EBFF002000F0DCFF012000F0CDFF10BD182200206C1000201422002008220020FC2100208410002082
:4004800008B5194B1B78812B27D1174B5B78002B03D0002000F0CCFF02E0012000F0C8FF114B9B78002B03D0002000F0B5FF02E0012000F0B1FF0C4BDB78002B03D0002080
:4004C00000F09EFF02E0012000F09AFF8122064B1A70803A054B1A7002E00022024B1A700022034B1A7008BD701000206C1000208410002008B500F0F9F82920002100F04F
:4005000063F9A02000F012FA032000F00FFAFF2000F00CFA00F0C4F92920002100F054F9AF2000F003FA022000F000FA00F0B8F90120C02100F048F9AF2000F0F7F90220B1
:4005400000F0F4F900F0ACF908BDC046F8B54F464646C0B42920002100F036F9B62000F0E5F92920012100F07FFA012000F02AFAC3B29946012000F0E7FD012000F022FA50
:40058000C6B2012000F0E0FD012000F01BFAC3B29846012000F0D8FD012000F013FAC5B2012000F0D1FD012000F00CFAC7B2012000F0CAFD012000F005FAC4B200F070F9BB
:4005C0009A2000F0C1FD074B36024E441E802D0245445D8024023C199C800CBC90469946F8BDC0468610002008B501F09DFB03680C2B00D1FEE7FEE770B50F4E0F4D13E06B
:4006000029686B68AC68002202E001C901C30432A242FAD1E868002202E0002102C304328242FAD11035013E002EE9D101F082FBFFF71EFEFEE7C046010000001C300100A7
:4006400008B50F4A136801218B43136000230AE0032B03D89A000B49505800E00A4899000A4A885001332F2BF2D9FFF751FD0022074B1A60024A116801230B43136008BDE9
:400680000000104000000000E905000000000020C00000200323044A1360044A13600022034B1A607047C0463000304030003140000E3F4008B50A1C002101F079FB08BDB1
:4006C00008B50A2000F0F2FC08BDC04608B500F01DF808BD08B5044A1368802109060B431360FFF7EDFF08BD0000254008B5064B1B78002B04D1FFF7E9FF0122024B1A7067
:40070000FFF7E8FF08BDC0468C10002010B50024194B1C60194A1A4B1A601A4B1A4A13601A4A14601A4A14601A4A13601A4B1C600A2000F0C5FC0A20032100F0DFFC0A2088
:40074000164900F0C9FC164B1C60164B1C60164B1C601422FF32154B1A60154B1C60154B1C60043AFF3A144B1A70144B1C80144B1C60144B1C6010BD000025407708008093
:400780006000254007010080000325400403254010032540000225400402254069140000C80E2540880E2540480F2540080F2540C80F2540880F25401A22002028220020E5
:4007C000382200202022002038B52E4B1B78102B53D12D4B1B68DB0751D40D1C041C0A2000F06EFC6000FF231840002D03D12422244B1A7004E02522224B1A70012318433B
:40080000224B1860224A234B1A600222224B1A60204B1A680823FF331A42F9D01D4B1B685B0714D41B4B1B689B0713D4194B1B68DB0705D51022134B1A70012001210BE073
:400840001022104B1A7080204000012104E00020002101E0022000210822FF320D4B1A6000290DD00D4A13685B005B0813601368802109060B43136002E0042000E00820E6
:4008800038BDC0461A220020640025404002254017030000000F254068002540000025401D4B1B789B0634D51C4B1B689B0601D5182200E010221A4B1A601A4B1A68122364
:4008C000FF331A42F9D0174B1B68DB0606D4154B1B68DB0705D50120012105E00020002102E08020400001211222FF320D4B1A60023AFF3A084B1A7000290BD00A4A1368B9
:400900005B005B0813601368802109060B43136000E004207047C0461A2200206400254068002540000F254000002540214B1B789B063CD5204B1860204B1A680823FF3330
:400940001A42F9D01D4B1B685B0705D56022194B1A700020002119E0184B1B689B0705D56022144B1A70022000210FE0134B1B68DB0705D510220F4B1A700120012105E0A7
:4009800010220C4B1A708020400001210822FF320A4B1A6000290BD0094A13685B005B0813601368802109060B43136000E004207047C0461A22002040022540000F2540D1
:4009C00000002540011C194B1B789B062BD5184B1B685B0705D4174B1A680223FF331A42F5D0134B1B685B070DD5134B186804220F4B1A60002902D1104B1A6015E060221B
:400A00000A4B1A7011E00E4A0A4B1A600D4A13685B005B0813601368802109060B4313600120404201E00120404270471A220020C00F2540000F2540400325406800254079
:400A40001703000000002540054B1B682022134000D0082301221343024A13607047C046640025406800254010B52A4B1B789B064DD54000FF240440002903D12422254B1F
:400A80001A7004E02522234B1A7001231C43224A224B1A60FFF7D8FF214B1B68DB07FBD4204B1C601D4B1A680823FF331A42F9D01A4B1B685B0714D4184B1B689B0713D452
:400AC000164B1B68DB0705D51022124B1A70012001210BE010220F4B1A7080204000012104E00020002101E0022000210822FF320A4B1A6000290BD00B4A13685B005B08F2
:400B000013601368802109060B43136000E0042010BDC0461A22002017030000000F254068002540400225400000254008B500F081FA08BD10B50024064B1C70064B1C702C
:400B4000064B1C70FFF7F2FF054B1C70054B1C7010BDC0465B220020542200205A220020402200204822002010B590B0041C0BA82049142201F013F920231F4AD35C002BD1
:400B800005D1FFF7D7FF012120231B4AD154002C2DD01A4B1C6008A805AA426006AB0893002101811B311980598017391971002313701231694401F00FFA002818D1052349
:400BC00000930F4B01930F4B02930F480F49AE2212010BAB01F056F9002809D101220C4B1A700C48112113320DF04EFA00E0012010B010BD242E01009410002044220020BC
:400C00008038010079020000710D0000C800002050220020382E010008B502282ED81B4B1B78042B2CD11A4B1B785B072BD4002809D1184B1E221A860232596A0A805B6A2B
:400C400010325A800CE001280AD1124B96221A86C822D200596A0A805B6A8022D2015A800D4B18700B4820300BF01EFB00280CD1074A117804230B43137006E0012004E03D
:400C80000420FF3001E00420FF3008BD502200205B220020AC0B00205A2200207047C04603784078000218437047C04638B58389092B20D1041C04300021221C37330DF004
:400CC000FBF9051E11D16068FFF7EAFF830706D50A4B1B6882204000211C984705E0074B1B680620FF30211C9847054A137801218B43137000E00025281C38BD44220020DD
:400D00005B220020024B00225A701A707047C0465822002010B582B0041CFFF7C7FF0A4B1B78DB070ED4002809D001A912238B70A3890B80C87020680CF0DEFB02E02068EC
:400D40000CF06EFC02B010BD5B2200208379002B07D000200BE0C25C002A07D10133DBB200E00023052BF6D9002000E001207047F0B583B0041C0D1C9B4A117801230B432C
:400D80001370272800D1BAE012D8062800D17EE004D8012821D0052875D014E1242800D1A9E0262800D1B2E0212800D00BE182E0422800D1F3E006D8282800D1A3E041289B
:400DC00000D1D8E0FFE04C2800D1F3E0FA2800D1F4E0432800D0F6E0E4E001AE0727377000237370301C02F0BBFF377001237370301C02F0B5FF7D4B1E68301CFFF7A6FF80
:400E000000280CD0301C01F00FF8784E30680021FFF744FF30680121FFF740FF25E0744B1B78744A12783F210A4092010B401343714A127820390A40120313436F4A1278B0
:400E400060310A40520413436D4E33701A0A72701B0CB370301C00F0E7FF301C0021FFF71DFF301C0121FFF719FF00200BF0CAF801A83F230370002343700BF0E1F80422F5
:400E8000604B1A709FE02A785F4B1A709BE02B78002B00D097E06B78002B06D15B4B0022DA809A805A4A1A606B604F4A137801218B43137087E04C4B1B789B0600D582E00E
:400EC000544B1B78102B02D10522524BDA70524B187850490BF0A6F901AB1880002804D04E4B1B68362001A998473F4A117801230B43137067E06A78494B1A7063E0022254
:400F0000404B1A705FE004223E4B1A705BE03D4B1B78022B57D0344A1278D20753D5324A1278520708D50322364B1A702E4A137804218B43137046E02B4A1278120708D571
:400F40000422304B1A70284A137808218B43137039E0032B37D104222A4B1A70314B1B78002B30D10120FFF757FE00282BD10322244B1A7027E0284E301C291C022200F050
:400F80000EFF0022204B1A7031789E318900264B591801312548043200F001FF13E0FFF7B1FE10E06988162900D9172128880CF0ADFA08E0281CFFF7ADFE04E01C4A1178A9
:400FC00001230B431370084B1A7811231A4209D0054A137801218B431370104B1B68201C291C984703B0F0BD5B220020E00B00207CF1FF0F7DF1FF0F7BF1FF0F78F1FF0F33
:40100000E40B00205022002054220020B8100020A80B0020B00C00205822002044220020482200205A220020803801004C220020402200207047C04610B586B0041C00F00B
:401040000CFA0E4B1B6800930D4B1B680193033C0C4B1B5D02930C4B1B68039304AA0B4B04936B4605930A4B1A600A490A4A11601B6800F0F6F906B010BDC04608010B406F
:4010800000010B40C42F010030001040B6EA0000080010401700008004001040024B1B68012018407047C0460C002E401F2318401E3B8340181C014B1860704700E100E0E7
:4010C0001F2318401E3B8340181C014B1860704780E100E001BE704738B5041C0D1C1F2802D90020FFF7F6FFA400034B9C4664442068256038BDC0464000002070B5041C48
:401100000E1E032E02D90020FFF7E4FF1F2C02D90020FFF7DFFF03252540ED00063500F09CF9A408A400074B9C46644423680322AA409343AE40351C1D43256000F091F9F0
:4011400070BDC04600E400E010B5041C06E0084B586800F079F9074B9C46644480231B029C42F4D8024B9868604300F06DF910BDB80C00200080FFFF08B5034B1B7B584341
:4011800000F062F908BDC046B80C002010B5041C0F4A116801230B4313600E4A0E4B1A600E4A1368802109020B431360002809D100200CE00120FFF7DFFFFFF76FFF00289F
:4011C00004D1013C002CF5D1102000E0002010BD60F02E400220000078002E4010002E40034B1868C0231B02184000D00120704700010B4010B50D4B1A6801218A431A6088
:401200001A68022082431A60094A10683024A043203C204310601068093CA043014311601A68802109060A431A6010BD00F02E4000FF2E4038B51D4B1B6801241C40002833
:4012400002D0012816D02BE0184B19680122914319601968022081431960154B19682E3081432038014319601968093881430A431A6018E00D4B1A6802218A431A600C4A57
:4012800010680725A84301431160116830208143103801431160196801220A431A6002E00020FFF717FF201C38BDC04600F02E4000FF2E4008B500F0D0F8044A1368C021C6
:4012C00009020B43136000F0CCF808BD00010B4010B500F0C2F808490A68084B1A408024E40122430A600A6813408022120213430B6000F0B6F810BD00010B40FF3FFFFFF7
:4013000070B5061C00F0A9F8041CFFF769FF002803D0FFF7DDFF012500E000250848331C0340084A106808490840184310601368012D01D1FFF7BEFF201C00F092F870BD3E
:401340000404040010020B40FBFBFBFF10B5244B1B685B0715D5234B5B685B070ED5224B596A042001401F4C62688A4362605A6A82435A629B69002B00D098470420FFF705
:40138000BFFF174B1B685B0518D5164B5B685B0510D5154B596A8022D2001140114842688A434260596A114A0A405A62DB69002B00D098478020C000FFF7A2FF084B1B686B
:4013C0005B030CD5074B5B685B0304D5064B1B6A002B00D098478020C002FFF791FF10BD10020B40CC0C0020C0100020FFFBFFFF024B18680006C00F7047C0460402044017
:40140000044A11687F230B40C001C0B2184310607047C0460003044004490A68BF231A4080017F3B18401043086070470003044004490A68BF231A4080017F3B18401043CE
:4014400008607047000204400230800803D00138FDD1C046C046C0467047EFF3108072B6704780F31088704710B5B94B1B68002B00D09847B74B1B68DB0702D50022B64B10
:401480001A60B64B1B789B0628D5B54B1B68DB0507D5B44A1188C0239B000B431380012300E00023AE4A1268D20706D5AD4A118890239B000B4313800123002B0FD0A74A20
:4014C0001278D20701D5012200E00222A549088802430A800021A14A117000E000239F4A1278920600D417E19D4A1268D20611D510229D4B1A60994B1B78DB0701D50123D2
:4015000000E00223974A11880B4313801022934B1A701BE1914A1278120720D5904A126892070AD50222904B1A608E4A118888239B000B431380012311E0884A1278D2071B
:4015400003D52521854A117009E02421834A1170864A1268002A02D01439854A11607F4A1278520700D4AEE07C4A1278D20749D5804A1268120727D57F4A12687F49096884
:401580001F240C407E4909686418141B082C09D8002C16D17B4A11687B4B0B401360012308340EE008240CE0754A116877480068411877480068C0B2087011680131116084
:4015C000013C002CF0D119E06A4A1268520715D56B4A11686D48006841186D480068C0B208701168013111601168634A1268914203D20421674A116000E001236649674A9D
:40160000116060E0564A1268920726D50222564B1A60634A13681F211940136880221202134000D00123CB185E4A1168CB1A136012685D4B1A604B4A118884239B000B431D
:4016400013805A4B1A68802149020A431A601968574A0A401A60012335E0564A1268D2061ED427E04F4A1168404A126891421DD23E4A1268013A4B4909688A4204D14022D6
:401680004D490A603A490A60464A11684B48006841180978C9B24A4801601168013111603F4A12681F210A40082ADBD11021424A116008E03F4A1268520604D5394B1A681A
:4016C000394B1A600123002B40D02E4A11682E4B0B40136000233B4A1360254A13603A4B1B789B070ED51D4B1B78DB0701D5092300E00A231B4A11880B4313806022174B1C
:401700001A7023E0314B1B689B0601D5182200E01022204B1A6019E0104B1B78DB0615D42B4A13685B005B08136010210B4B1970144B18682749014019601868264901405A
:4017400019601368802109060B43136010BDC046901000208C0E2540880E25401A2200200C0F254028220020000F254024220020880F2540CC0F2540342200200803254035
:401780003822002060002540FFFEFFFF2C2200204003254068002540ED0F0000C00F2540080225401C2200202022002004022540FFFFFEFF8C0F2540800F25403C220020D5
:4017C00040022540C80F2540302200206400254000002540FF5FFFFFFFFCFFFF0160704701607047324B1A781202324B1B781A43314B1B781B02314909780B4330498B4296
:4018000001D1072A06D0D42109018B4206D1042A04D102E02B4B042200E02A4B2A490B602A4B1A602A4B1B781B022A4A1278134380229201934202D0002B02D002E0264BE4
:4018400000E0254B254A1360254B1B781B02254A12781343244A934205D0244A934204D0052B05D103E0224B02E0214B00E0204B204A1360204B1B681B09204A1268AA2A02
:4018800015D1012B13D9164B1B780E2B0FD11C4B1B781B021B4A127813431B4A13601B4B1B781B021A4A127813431A4A13607047D9F0FF0FD8F0FF0FDFF0FF0FDEF0FF0F9B
:4018C000580B0000580D00006C002E4074002E40DBF0FF0FDAF0FF0F0220000078002E40DDF0FF0FDCF0FF0F0F0F000005050000050F000080002E40EC0F00F0E00F00F002
:401900006DF2FF0F6CF2FF0F84002E406FF2FF0F6EF2FF0F94002E4008B5FFF72DFC08BD08B5FFF711FC08BD08B500F04BF808BD08B500F04FF808BD08B500F04BF803482E
:4019400000F02AF8032000F02DF808BD1D1A000008B5024800F046F808BDC0461D1A00000220FF307047C0462B2070472B2070472B2070472B2070472B2070472B207047D0
:401980002B2070472B2070472B2070472B2070472B2070477047C046014B18677047C0460000002010B5041CFFF757FD044A1368C0218B43A4011C431460FFF752FD10BD87
:4019C0000CE400E080225201014B1A607047C04600E100E080225201014B1A607047C04680E100E010B5041CFFF7F4FF201CFFF7D3FF0320FFF7D6FFFFF7E4FF10BDC046B9
:401A000008B5FFF72AFD044A136804218B43136030BFFFF726FD08BD10ED00E008B511F0E5F908BD002243088B4274D303098B425FD3030A8B4244D3030B8B4228D3030C30
:401A40008B420DD3FF22090212BA030C8B4202D31212090265D0030B8B4219D300E0090AC30B8B4201D3CB03C01A5241830B8B4201D38B03C01A5241430B8B4201D34B03E1
:401A8000C01A5241030B8B4201D30B03C01A5241C30A8B4201D3CB02C01A5241830A8B4201D38B02C01A5241430A8B4201D34B02C01A5241030A8B4201D30B02C01A5241EF
:401AC000CDD2C3098B4201D3CB01C01A524183098B4201D38B01C01A524143098B4201D34B01C01A524103098B4201D30B01C01A5241C3088B4201D3CB00C01A5241830880
:401B00008B4201D38B00C01A524143088B4201D34B00C01A5241411A00D20146524110467047FFE701B5002000F0FCF802BDC0460029F7D003B5FFF775FF0EBC4243891AEB
:401B40001847C04603460B437FD4002243088B4274D303098B425FD3030A8B4244D3030B8B4228D3030C8B420DD3FF22090212BA030C8B4202D31212090265D0030B8B421F
:401B800019D300E0090AC30B8B4201D3CB03C01A5241830B8B4201D38B03C01A5241430B8B4201D34B03C01A5241030B8B4201D30B03C01A5241C30A8B4201D3CB02C01A89
:401BC0005241830A8B4201D38B02C01A5241430A8B4201D34B02C01A5241030A8B4201D30B02C01A5241CDD2C3098B4201D3CB01C01A524183098B4201D38B01C01A5241EF
:401C000043098B4201D34B01C01A524103098B4201D30B01C01A5241C3088B4201D3CB00C01A524183088B4201D38B00C01A524143088B4201D34B00C01A5241411A00D23F
:401C400001465241104670475DE0CA0F00D04942031000D34042534000229C4603098B422DD3030A8B4212D3FC22890112BA030A8B420CD3890192118B4208D38901921146
:401C80008B4204D389013AD0921100E08909C3098B4201D3CB01C01A524183098B4201D38B01C01A524143098B4201D34B01C01A524103098B4201D30B01C01A5241C30874
:401CC0008B4201D3CB00C01A524183088B4201D38B00C01A5241D9D243088B4201D34B00C01A5241411A00D20146634652415B10104601D34042002B00D5494270476346E6
:401D00005B1000D3404201B5002000F00BF802BD0029F8D003B5FFF715FF0EBC4243891A1847C0467047C046014B18687047C0464C1000200E4B70B500251E1C0D4CE41A5B
:401D4000A410A54204D0AB00F35898470135F8E711F052F9084B00251E1C084CE41AA410A54204D0AB00F35898470135F8E770BD0430010004300100043001000C30010058
:401D800030B50024944208D0035D651C0C5DA34201D0181B02E02C1CF4E7002030BD002310B5934203D0CC5CC4540133F9E710BD031C8218934202D019700133FAE77047C1
:401DC000134A1088810703D08107890F401A001D11791030484381B25088820703D08207920F801A001D800040180A494030098980B2CA0701D0503080B2890706D50449F4
:401E00005422091F09785143081880B270470000DA0C0020F410002010B501F0C7FE10BD10B500F055FA10BD10B50749044609780220002907D1204601F008FF002802D147
:401E400020460AF0D5F910BD6C0E002070B504460120002C12D02368002B0FD0616800290CD0074D06222889208118462968FFF796FF6968606809780170002070BD0000AC
:401E8000F4100020FFB585B0002768460E9D07734F481C460078002802D0082009B0F0BD10990F9801900095029105A807C800F001F90028F2D16946264603AB84460873BA
:401EC000002C19D0002115E08A00B75A082F09D990198078002805D0083FB7521878401C187005E0002914D00027B75290198770491CC9B2A942E7D360460028CED10F9846
:401F0000002809D0109901F001FA002804D00120C4E701208446EFE701F048FE2D480021416081600599016021888180022D07D3A1798171A17AC171A1890181218A41810F
:401F400000211EE0481C19E082008B00A75AE65ABE46BE4211D26F463E80B4461E190296B678BE7001967646E6521719029EBB78B3706646A652019EBE70401CA842E3D3FA
:401F8000491CA942DED3134822460C3000906846037B0799069800F015F90028B8D168460B4C007B60700B480C3001F02FFE0028AED1084907480C3107F0FEF80028A7D16A
:401FC00007F018F90028A3D10121217066E70000D40C0020E8100020F8B5054633480E460078002802D002242046F8BD002E5BD000242F49002D16D02A89D0070DD02868AC
:40200000002808D003881B3BE12B04D24088FB2801D81B2801D2012409E0900707D56868002804D1F7E70020088108604860002CDAD11F482F8907811C481B21801D0180E2
:4020400041800421017119490020891C0870F80705D016480622801D2968FFF7A0FE1449B80703D56A681148127882700F480D46801D0860001F486001F00EFE0B48801D4F
:4020800001F0FCFD28890DF0C7F828890DF02EFA03461033FFF794FE1F21C018890140180249308088809FE701249DE7D40C0020F4100020FFB58446384F1C460020BB88C5
:4020C0003F78054602460646002F11D100290ED0029999420BD36146002908D0002C06D00A99002906D02E4B0B99994202D2012004B0F0BD002144E0AB001F19BF78002FB6
:402100003BD0E35A002B38D07B43591889B22B0000F04AF8050410161C253100A7782388BC46FF27233BEB37BB4222D26346032B1FD322E0A388002B1FD0302B19D31CE006
:402140002389002B19D0282B13D316E0A289002A13D01346134F233BBB420AD20DE0268A002A0AD033460F4F233BBB4201D2964203D901200EE0002001E000280AD16D1C50
:40218000EDB2099B9D42B7D31C2463435B1802998B42ACD89642AAD8AAE70000D40C002079020000BAFF000030B47446641E2578641CAB4200D21D46635D5B00E31830BCAE
:4021C00018470000FFB583B0002469460C801F4606468C80002806D00598002803D004983043800701D0012466E0002FFBD03449049809888842F6D3FFF7AAFBFFF798FBBA
:4022000000F00EFC002855D100F076FD002851D12C49084601F0AEF805042D0C4AD12A480499066081800021C18007810C98007AC00704D0684601F0D2FC040007D10C98EC
:40224000007A800703D501A801F0D2FC0446BF1DFEB2002C20D13146059800F05DF804001AD10DF051F9040016D16A461088928808368518144AF1B29088D288AEB29319F4
:40228000984207D3401B801A80B201F063FB050007D000E0FF25012400F05AFA002D04D008E0F8B200F01CF9F6E700F07DFA07490120087000F0C6FB204607B0F0BD00006B
:4022C000D80C00200524000000110020E00C002010B503480078012801D101F0DDF910BDE00C002070B5084B0446DA889E8800205518B54206D81D68AA182260DA88511811
:40230000D98070BD032070BD00110020014800897047000000110020F0B587B007460D4600208900009006916846FFF7DBFF844600285DD1304800990160002117E02E4BEF
:4023400088001A680629115406D22C4C0419667882185670628805E0C419203CA67A8218567022891B68C018491C4280C9B2A942E5D300242DE0601CC2B2059025E01E4F19
:40238000A30039689600581840887118039604904E88B04217D938466F46FE80B6464F786E4677710297049F4F800168039F5E18767879184E700168764659184E800068F8
:4023C000029F18184770521CD2B2AA42D7D30598C4B2AC42CFD36046002809D168460699FFF780FF8446002802D1054900980860604607B0F0BD0000E40C00203030010032
:40240000E80C00207047000010B5002809D005494A68002A05D0011F08788000105801F047FA10BDE40C002010B50446FFF76EFFC0B2801DA0420CD307484068002808D03C
:40244000A100405801F0A6F9002801D00470001D10BD002010BD0000E40C0020F8B516460D460446FFF752FFC0B2801DA04203D20020C0430090F8BDB2B2E9B2684601F086
:40248000AFF90099481C03D0024AA000526811500098F8BDE40C0020F8B50746FFF736FF801DC6B20A49002005460C680DE06178002907D06188B94202D32078FFF7B4FF14
:4024C000002804D1241D6D1CEDB2B542EFD3F8BDE40C002010B5002801D0FFF795FF10BD70B506460948002504680BE06178002905D062882078121D0023FFF7AFFF241D15
:402500006D1CEDB2B542F1D370BD0000E40C0020FFB581B00A9C16002BD000F0EFF80546042826D0214F002C0BD02046FFF7B4FF2901C919486000281BD022460499FFF753
:402540002EFC1A4928010E5046187481019805707D20029CC000444300F0BEF8074604280AD000F053FAA0420ED800F04FFA201A06E0FF2005B0F0BD204600F0ABFA002071
:40258000F06035720020F5E700F040FA009000F0B7FA00980121001B009000F0EDF803493A0151180098C860E6E700000C110020F8B5060116483418217A042903D0E06898
:4025C000002802D017E00020F8BD00F01FFA054600F096FA00F0A0F804280CD001010C480F18F8680021451900F0C6F80020F860284600F06FFA6068054D002801D0FFF75F
:4026000069FF042020720020A8516081E060DAE70C110020FEB500266A46304601232549050169180D7A042D02D0C96800291BD000211154401CC0B20428F0D30024684648
:40264000005D002830D01B48210108184189476805680291002101604160042241810272C160002E02D015E01354E3E700F054F804280ED001010F4808180190C668002152
:40268000304600F079F801980021C160304600F021FA0126002D07D038460299A847002F02D03846FFF716FF641CE4B2042CC6D3FEBD00000C1100200EB5002005216A469A
:4026C0000090118150810348694600680DF091FD0EBD0000EC0C0020074A0020010189180B7A042B02D0C968002903D0401CC0B20428F3D3704700000C110020054900202E
:4027000002015218127A042A03D0401CC0B20428F6D370470C11002030B50A4B04200A4C00210A011219157A042D06D0D268002A03D09A4201D808461346491CC9B20429A7
:40274000EFD330BDFFFF00000C1100207047000030B50020074C05460423020111190B72A5504D60401C4D81C0B2CD600428F4D330BD00000C11002030B5094C00231A0144
:402780001219157A042D04D0D568002906D02D18D5605B1CDBB2042BF1D330BD2D1AF7E70C110020002070471CB5002469460C70142001902346054A05480DF01FFD044838
:4027C0000068401C00D1FF2420461CBD25280000EC0C00203EB5124A0146FF2000230124126800290DD0012914D0042908D104206946009308814B8110460DF0FAFC80B2B6
:402800003EBD6846009304814381694610460DF0EBFCF4E768460093048143816946EBE7EC0C002070B545890468416800890300FFF7BAFC08280509091E222826280020CF
:4028400005F08CFB1EE0022908D0C8B22A4621460BF092FE2046FFF73DFE13E002202A4621460BF089FE2946204600F00DF809E000200DF0ADF905E02046FFF7CBFE01E099
:40288000FFF788F8002070BD014B0022DB681847F00C002070B5448905680089022803D0032809D0FF2070BD2246094C0023A46829460120A04708E0FFF7AEFA241DA2B276
:4028C00000232946022006F040FB002070BD0000F00C002070470000024800214160018041807047F00C002070B50C46002186B016460391012802D0022859D116E003A903
:40290000012006F06AFB01281BD1039D324621462846FFF744FA0095287801900220694608814E816846FFF7B5FF41E0214D002B686809D0049004A9022006F04EFB012870
:402940001DD0022006B070BD002812D0298840182146FFF724FA28880024801980B228806988091D884206D12C801348FFF792FF03E00320E6E788421AD96C6018E004985A
:402980006860E278A378110219430B4A698000231060E3565360032313815181A1788170E178C1706178417021780170042028800020C7E7F00C00204C1100203EB5154679
:4029C0000C46022803D004280CD000203EBD0091019002206946088107484A8100680DF008FC07E00BF0C8FD044B0022DB6829462046984701203EBDEC0C0020F00C002007
:402A0000014AD16090607047F00C0020034801688068081A0A214843000970475811002010B5FEF789FF482204490548FFF7B7F903490120C870002010BD00004C3001009F
:402A40005C15002010B5FEF76FFF10BD70B5134C2368002B08D0207B1149C20705D04008400020738868A08070BD88680B4AA18880B29268814203D90A4D691A091802E0BD
:402A8000814202D2411A5118A160A080A0689842EAD30DF0CBFB00F013F870BD58110020C0102E40FFFF000010B508461946FFF7A7FF10BD704710B5FFF780FF10BD0000B2
:402AC00003480021016041608160C1607047000058110020024610B5FF20002A0CD0FFF7EFFF064C0321207B0843207310010A21FFF71EF82060002010BD000058110020E3
:402B000000B504480A21806848430209FFF7D8FF104600BD581100200248007B8007C00F704700005811002010B54B490868002802DA4A4B01221A70022290430860484829
:402B400000694549C00B4031096A0246C907C90F0A4259D0012000F097FA3F480E216C30FEF73EFE3E4820218430FEF739FE3C4814219C30FEF734FE3948FF21C131A4306B
:402B8000FEF72EFE3648FF212F31B030FEF728FE33483449BC30FEF723FE31483249AC30FEF71EFE30492E48491CB430FEF718FE2B482E49B830FEF713FE29482C49CC3023
:402BC000FEF70EFE26482B490830FEF709FE24482949A830FEF704FE214828498830FEF7FFFD1F4826498C30FEF7FAFD1C481921C9029030FEF7F4FDFEF7F4FDFEF7B0FE78
:402C0000C0B2022812D01FE000290BD0002101420AD0114801216030FEF7E2FD0120FEF77FFE97E70121F2E7FF2010BD15491648FEF7D6FD14481549001DFEF7D1FD124886
:402C400000210830FEF7CCFD54200449C043891C0870002010BD000000F02E40000D002000002E40320300002F3F00003102000010520000EC160000FA12000031D000002F
:402C80003AE300009956000080012E40F80F000070B50646581C80B245086D00002408E0304600F0C1F81055000A1119A41C4870A4B2AC42F4D3D80705D0D0182038D15CD9
:402CC000C47FD454C17770BD30B50A4C002100195B1E07E0541864782502545C2C430480891C89B29942F5DB994201D1515C018030BD000000102E4010B5FF2000F0C4F9BB
:402D00000F49FF2048700E481021801D41800121417001700A490020C91C4870FFF704FF04000AD100F010F907210648FEF756FD044807211830FEF751FD204610BD00006A
:402D4000000D0020CC112E4070B5002405465B1E0AE0284600F068F8010A161971702D1D1055A41CADB2A4B29C42F2DB9C4203D1284600F059F8105570BD000070B5002103
:402D80000A4D5B1E0AE0541864782602545C344346193480001D891C80B289B29942F2DB994202D1515C4019018070BD00102E40F0B50599091FCFB200217E1E0BE05418F8
:402DC00064782502545C2C43164D45192C80001D891C80B289B2B142F1DBFC0712D01C78515C24020F4A0C4381180C809C785D78001D210280B2294384182180001D80B2EA
:402E0000D9780CE059781A7809021143054A84182180001DD9789B78090280B2194380180180F0BD00102E40014940180088704700102E4010B50B490020487000F084F8ED
:402E4000002000F047F9002000F034F907210648FEF7C4FC044807211830FEF7BFFC002010BD0000030D0020CC112E4010B50B46062812D006DC01280CD0032801D1FFF7C6
:402E8000D9FF10BD0A28FCD00B28FAD105480078107010BDFFF730FF10BD1146184600F035F910BD060D0020F8B5244DAC6A0127A007234E002816DA307806280ED1286AC7
:402EC000384328621F480069F903084381B21D481030FEF785FC042000F0D6F8174802212830FEF77BFCE00718D000F0E1FE01280FD1002000F02EFF062000F0C5F8104930
:402F0000FF20C91E48707078002802D1686B384368630A4801212830FEF760FCE0050BD53078042802D1052000F0AEF80348FF2101312830FEF752FCF8BD000040F02E4008
:402F4000030D002000002E4010B503212348FEF747FC0120FEF7E0FC20483038406A204C80076178800F890001431C480C38FEF737FC6078002808D0401E02218140182071
:402F8000FEF7C6FEC000083800E0B82081B21548FEF726FC1348032109021438FEF720FC10481149B830FEF71BFC612189010F48FEF716FC0D480321001FFEF711FC0C4913
:402FC0000C48FEF70DFC0B480B496038FEF708FC084801218838FEF703FC10BD70F02E40060D0020D8102E4090890000041E2E40FF0F000058122E402090000008490878ED
:4030000006280BD148780749002803D1486B400840004863C86A01221043C86270470000030D002040F02E400148007870470000030D002000B50300FFF7B6F8080D050D12
:403040000B070507090D012000BD032000BD042000BD022000BDFF2000BD0000074A9168D26889B2064B92B2994204D105498A4201D1012100E000210170704780002E4099
:4030800033D000003FE3000010B50446FEF750FC072C01D9FF2C01D102480470FEF744FC10BD0000030D00200149487070470000000D002010B5064A012805D01921C902A3
:4030C0001046FEF78DFB10BD1D21C902F8E7000090002E4010B50A4A141D012808D009491046FEF77DFB08492046FEF779FB10BD04491046891CFEF773FB0349491DF3E7C6
:4031000088002E4031D000003AE3000070B50C460546FEF725FCC0B202280E49287804D0FF2810D04C280CD810E0FF2809D10A4AD0680004800F032801D0087807E0906971
:40314000000A553803E00878207070BD4F382070087070BD020D002000002E40F0B50122002830D000292ED00424420600D00524792342065B06D21800D0641C03460022D5
:403180001EE00C2516466E43104D00277519AF720E4F002ABB51696007D0661EB24209D10B4E86197606760E05E05E06760E8027BE1B00E080269B198919521C2E81D2B259
:4031C000A242DED300221046F0BD0000E413002079020000074900200C2242435218927A012A05D0401CC0B20628F5D30020704701207047E4130020F8B50F0004461646FE
:4032000009D0184D18496868A04202D94018A04201D38E4201D90120F8BD39462046FEF7AFFD00281BD0324639462046FEF7B7FDF0B200210C224A43521913895668F718E3
:40324000A74208D90127A41B1B1B9772834206DAC01A1469C0B2491CC9B20629EAD30020F8BD0000E41300207902000010B500F05DF80748054AC16806480C46FEF78FFDCB
:4032800004492046FFF76AFF10BD0000790200000C0D002068110020002070470020054A002902D0012902D002E0506000E09060002070470C0D002070B5084C1546084611
:4032C0000549A26889182A46FEF769FDA0684019A06028B270BD0000681100200C0D00203EB50A226946FFF7E7FF044606480A2200686946FEF744FD002802D00020C043F8
:403300003EBD20463EBD00000C0D0020002802D0044A914201D2FF20704703490A61C86000207047790200000C0D00200248002141608160704700000C0D002070B5074C75
:4033400015460548626880182A46FFF755FF60684019606028B270BD681100200C0D002010B503490A220968FFF7E8FF10BD00000C0D002010B50F4A002313600E4A1360BF
:403380000E4B18600E4801600E49012008600E490860000290600E490C4808600D4914300860FF381538506000F0BCF800F0CAF9002010BD380D0020200D00204C0D00203C
:4033C000500D00203C0D00202C0D00202C150020300D0020440D0020014610B50020002910D0094B1A689C685118A14209D25868196080188A0704D08A07920F891A091DF8
:40340000196010BD002010BD200D0020F8B50024164E671E321F3D463168136806E01422624310328A58521C1BD0641C9C42F6D36A1C14D02C461422544322460C328850DE
:403440000C214843FFF7C8FF3168002808510AD031680020103408517068401C70602846F8BD2546E4E73846F8BD0000300D0020F3B50026F64381B000281BDB1E49096872
:40348000884217D80299002914D01B4F142204463F1D54432546396810354859401C09D0FEF746FA38682F1F4159C359994203DBFEF73AFA3046FEBD2146083100914658EC
:4034C00001590C20704308180C220299FEF767FC0948761C001D0068C159B14200D100260549009A091D865008684159491C4151FEF71AFA0020FEBD2C0D0020002803DBBE
:4035000007490968884202D90020C043704704491422091D0968504310300858704700002C0D0020F0B500200D4A451E0346171F50600FE014260146714314680E1DA35181
:403540000C461668083433511668083435511468401C635039688842ECD30020F0BD0000300D0020F3B50026F64381B0002841DB2349096888423DD8029900293AD0204F27
:40358000142204463F1D54432546396810354859401C2FD0FEF7CCF93868415900292BD0211D009146580C21005971430F46C1190C220298FEF7F3FB11480021001D0068B3
:4035C000761C00590C34C0190160416081600C48001D00680159B14200D100260849009A091D865008684159491E4151FEF79CF90020FEBD3046FEBDFEF796F9FAE70000E2
:403600002C0D0020FEB504460D4600201E49089E0860471E009001900290002C11D0486885420ED2002A0CD0002E0AD0642E08D808460C3001681C2068430C18207A002890
:4036400001D03846FEBD0120226020721846FFF7DDFE6060401C13D06681A6810A4827610C3067610179A94200D205710021684601810A462846029B00F040F82846FEBD47
:4036800000202072DDE70000380D002038B50124009400F039F838BDFEB50027164EFF433D4600240EE01C20316860430818017A002906D04068FFF721FF002801D025462A
:4036C00003E0641C3079A042EDDA681C12D01C2130684D434419FEF72BF969466068FFF741FF0546FEF720F9002DD9D1216868468847D5E7FEBD0000440D002038B50024F8
:40370000009400F001F838BD1FB500220C49541E0A60002811DB496888420ED808491C220C31096850430818406801A9FFF7A0FE401C02D0002004B010BD2046FBE700008E
:40374000380D0020F0B50021114A4D1E174611710C3F0B46BD6016E008461C2460431668041D355114680646235014680836A3551468361DA353044616680A3433531830EE
:403780001468491C255078688142E5D30020F0BD440D002038B500210091002811DB0F49097888420DDA0D4D04010C3529680859002807D0201D0818694600F06FF90028C0
:4037C00001D0002038BDFEF7B3F828680F34015D491E0155FEF7A8F8009838BD540D0020F7B582B0002502986E1E06602E48D21C024017462D4A2C4610460C3801781068AC
:4038000005E02301C358002B0FD0641CE4B28C42F7D3711C28D03401211D40180191039900F02AF900281FD101E02646F1E71F48016820460C300F521C480399026820463B
:403840000E30115419480399026820460F3011540398784300F0A0F8144900280968085102D00024009011E001251AE00F48016801980818009900F02CF9002801D001252A
:4038800002E00098C0190090641CE4B203988442ECD3002D05D10298066004480179491C0171284605B0F0BDFCFF0000600D0020F8B50D4600216A468C461180002839DB87
:4038C00023490978884235DA214B04010C3319680A59002A2ED020460C300B5A801C0E5C184670438018954224D3854222D2002006E007465F43BF18AF4206D0401CC0B2A6
:40390000B042F6D36046002814D0114E271DC8190C366A46294600F006F900280AD168460088012808D030682946C01900F0D1F8002803D00120F8BD0020F8BDFDF7F8FFE2
:4039400030680F34015D491C0155FDF7EDFFF3E7540D0020F8B50F46002400F031F8002817D10C4900220B460C334A600EE021011D680E466A501D680C36AA53B61C1D685A
:403980000F31AA551D68641C6A54E4B2BC42EED31A71F8BD540D002000280BD0C01C074A81085068890053884118994203D89368516018187047002070470000540D002020
:4039C000F8B5064600200F4D009029700C0121466846FEF787FC00280CD129460C3100980860301B001F84B221466846FEF77AFC002801D0FF20F8BD6C800098A860002045
:403A0000F8BD0000540D0020F8B5002827DB19490978884223DA174C05010C342168485900281CD028460C30085A009028460E300E5C401C0E5420682F1DC01900F064F87F
:403A400000280CD12068002445590EE0094829460C300068C01900F03CF8002801D00120F8BD00982D18641CE4B2B442EED30020F8BD0000540D002030B50D4604000BD0C2
:403A8000A800FFF789FF6060002805D000202570C0436080002030BD012030BD70B50D46040005D0002D03D00220205E002801DA012070BDFDF73CFF0221615E60688900CC
:403AC000405828606088401E6080FDF72DFF002070BD70B50D46040007D0002D05D002212078615E401E814201DB012070BDFDF71FFF6088401C00B26080616880000D506B
:403B0000FDF712FF002070BD10B5040009D0227800216068FEF74CF90020C0436080002010BD012010BDF0B500231D46002802D00224045F0AE00120F0BD46689F00F659F4
:403B40008E4201D1012503E05B1CDBB29C42F4DA15700020F0BD00000148007870470000680D00207CB505460024FEF755F9A8796946087000A8062229460130FEF70FF9F3
:403B80000021684604F0B0FC0C2806D0072806D01F2806D0122806D006E0022404E0042402E0272400E0012420467CBD10B500F05FF9FFF739FAFFF73DFA10BD70B50446D2
:403BC0000025FEF729F9002C06D0A079012803D8214602F067FC00E00125284670BD01460120002902D05020088000207047000001460120002905D00348542200785043A9
:403C000008800020704700006A0D002010B502460D49FE204870032410460CF00DFE002810D10CF0B1FD00280CD105F033FA002808D100F013FB002804D104F0FBFE0028E6
:403C400000D10024204610BD680D002070B50025044600280ED0A07901280BD8FEF7DCF8A0790028204602D002F0C2FF03E002F097FF00E00125284670BD0000014610B5BB
:403C80000120002904D006220248FEF788F8002010BD0000740D002001460120002903D00878024908700020704700006A0D00200148007A704700006416002038B5044611
:403CC0000120002C20D0617801291DD800290BD0FF25E535FEF7A0F80C4828180088C0B22070072803D00EE0FF25CD35F2E70020694608706846FFF7B1F9694608780128C6
:403D000001D108202070002038BD000000102E40014A002192681047680D002008B500226B461A7026280CD0094A342852680BD0352805D1900703D50021352005F07CFA09
:403D400008BD19462620F9E7D007F9D03420F5E7680D0020014908727047000064160020F8B504460120002C26D06178012902D92278092A20D8002905D0FF25E5352078CE
:403D8000092803D004E0FF25CD35F8E708202070FEF742F82078114F114E08280DD00020FFF798F970780128207810D00D4969180880FE2070700020F8BD0120FFF78AF9CF
:403DC0000720B8810549203188800120F2E7B8810248217820308180EBE70000C0112E40680D002000102E4070B50E46050001D0002400E00C4C002C11D0E28A500609D5D9
:403E0000D107C90F022002F087FFE08A40218843E08204E0D107C90F012002F07DFF3146284602F065FC70BDC4150020F8B50546002004460D4E009013E0224669462846FA
:403E400000F0CAFF0098002801D00CF0D7FCA878214602F085FAA878214602F073FA641CE4B2308AA042E8D8F8BD00008C16002038B51E4CFFF7D8F8042813D0052811D028
:403E8000062812D003282AD007280AD100206946087002460120FEF7E9FFFFF7C5F80128FBD138BD00F06BFB38BD02F0AFFA00F066FB02F02BFB8007800F0228F4D10C48F1
:403EC00041880029F0D05B21095D0029ECD101210170A07D0140022002F01EFF38BD02F099FA0120FFF7D0F838BD0000C41500208E0D0020F8B50646002402F07BFF054650
:403F0000304602F091FF03460A480021068A0DE001228A401046174628401F40002803D0002F01D1224394B2491CC9B28E42EFD82046F8BD8C1600201CB500206946487096
:403F40006846FFF7BBFE01AA69460A20FEF78EFF6946042008561CBD70B50D4601F01CFB04000BD02079002808D0FDF755FFE178A0782A4602F042FC002070BD022070BDE7
:403F800001480078704700009C1500204030C07E002800D00120704700B500F001F800BD902148430749084A40186030417F491CC9B24177D289914201D300214177C8B26C
:403FC00070470000A41500208C16002013B501F0E3FA04000BD001F080FE002807D0214601AA0A310620FEF741FF00201CBD02201CBD000010B50C4601F0CEFA00280AD01E
:4040000001F06BFE002806D0224604490A20FEF72DFF002010BD022010BD000085150020F3B581B0074601460026029802F0DAFE0446002F01D0002500E0154D002D21D0CC
:40404000284601F0DFFA032C04D13946029802F025FF06463846029902F074F9032C06D0002C10D00121384601F0D2FB03E03146384603F00FF9284602F058F8022128468E
:4040800002F06EF8FEBD3846029902F05BF9FEBDC415002010B5044600F05AFA002804D103F0B0FD002801D00C2010BD2078611C02F0A6FCFF2801D01F2010BD02F0ECFC71
:4040C000FF280AD02178621C02F0CAF8044821780068026B601C904710BD072010BD0000B40D002010B503F08DFD002801D00C2010BD02F067FC03480068C06A80470020F8
:4041000010BD0000B40D002070B50D46044610210CF0B4FA1021601806460CF0AFFA334610221946204603F09BFD102130460CF0A5FA02202870204604F0B2FB70BD00006F
:40414000F8B504464078217802028006870FE0781143A67809050002090D0643084601F01BFA00210546F2B2002812D0002C10D0022F0ED0032F0CD0002A0AD00279092A55
:4041800007D0002A05D0134A5A23527E1B5C9A4207D82889002104F0B8FA20460CF02EFBFF21002914D10C48224600682946436930469847C0B2FF280AD128464030817E37
:4041C000F2B2491C8176FF232146284600F0E3F8F8BD00005C150020D00D00200020704710B5044603F00EFD002801D00C2010BD2078611C02F004FCFF2808D002F03CFBB5
:40420000044821780068426B601C904710BD1F2010BD0000B40D002010B500F05FF904F009FC002010BD10B5044600786178E2780843A178114308432179084361790843BD
:4042400005D003F0D1FC002803D00C2010BD122010BD204602F0CCFC002010BD10B5FDF77FFB02F0E9FD044803F038FD02F00EFB012000F003F810BD6C150020F1B586B0D9
:4042800003A8009005A8019028489F22817A114081726846FDF7DAFD002845D169460989C90705D0224806990068C2686846904769460989890706D5002835D11D480068B1
:4042C000816A0698884700282ED11B4E0025757075737571F575357675767575B570F570B5713746F5730120CC3738731F20F880FF2130467972A0300176457600F0C4FAC8
:4043000000242046069901F093FC002803D1641C2406240EF5D0FD720749BD72B573C0310D704D704D600D7207B0F0BD5C150020D00D0020B40D0020A415002070B50546AE
:404340000E46084602F056FD0446304602F06CFD0121A9400A46224001400A4301D0012070BD002070BD10B50446084602F05CFD0121A140014201D0012010BD002010BDEA
:4043800010B5FEF751FE032804D102F043F80120FEF77AFE10BDFEB51C4616460F46054601F0C4FEA878FFF7F7FD02460190334639460094284600F00DF8002808D1A878B5
:4043C0000199FFF711FDFF2C02D138460CF016FAFEBD0000FFB585B005460E980C46FF2810D02B49C00009680A5840180179C0795278814201D9012601E09006860F68464F
:40440000038108E06078A1788006860FE0780002014368460181284601F06AFC070007D021462846079A00F06BFC384609B0F0BD304600F019FD04AE0346039002AA2946BD
:404440000096204600F0A5FB3C20405D002818D0284601F04DFC012813D0684600890096C0B20190A878231DFF22079902F0F4F868460089039BC2B2A878079902F034FCF9
:40448000D3E7684600890021C0B20091E9E70000CC0D0020F8B5104F002500242846FFF729FD060012D00EE03046E040C007C00F07D02146284601F03DFF21462846FFF799
:4044C000AFFD641CE4B2388AA042EDD86D1C2D062D0EE2D0F8BD00008C16002010B502F0D5F90020FFF7CAFE0CF01EFA002010BDF8B5002400F0B2F80123012800D101245F
:40450000104F00203E4620360425082203E0002801D0002100E031460979002907D001290BD002290BD0114681402143CCB2401C0006000EEBD07C70F8BD1C43F7E72C437C
:40454000F5E70000A415002010B5FFF7D1FF10BD10B5044604F0C0FB002802D1601C00F001F810BD1CB500240094062269460194FDF706FC002800D1122420461CBD10B525
:40458000FCF76BFF0446FEF74FFD012809D0FEF74BFD022805D0FDF733FA2046FCF761FFEEE72046FCF75DFF10BD10B50B4681791943817103D08078114602F063FB10BD07
:4045C00010B582798A43827102D1807802F06EFB10BD000030B50C4C0220A28A0B4B9978002901D0022906D11D785B78EB18282B01D9032002E0032900D101205105490DF3
:40460000C0020143A18230BDC0112E40840D002000B500F029F8002807D0012805D0032801D0042801D0002000BD012000BD014600B50020C90701D000F010F800BD014644
:4046400000B50020C90701D000F008F800BD000001480068704700007C0D002001480088000A704720102E400448008B410501D5042070474007800F7047000000102E40FD
:4046800010B501F009FF044601F046FF0146204601F02AFF10BD000001484068704700007C0D002038B50446000610D5FFF7DCFF01280CD1684601F0BDFE6846007800F06E
:4046C00023FB012001F09AFD0220FFF73DFF600708D507480179012904D1002101712620FFF71CFB0348006801692046884738BD880D0020B40D002070B505460C49007893
:4047000000240870FFF7AAFF012803D1FFF7B8FF022803D3284602F0D7F907E0284600F0EBF8040002D1034801210170204670BD840D00206416002070B50446FFF78EFFB7
:40474000002801D00C2070BDA27B01211F48002A827801D00A4301E05208520082706279012A14D0C17849084900C170184D2868016820468847207901280CD061882088D0
:4047800003F002F82080207904280FD015E0C2780A43C270EAE72868C168E01D8847E01D02F012FA0B48808C208006E02868C168E01D8847E01D02F007FA0749207988708E
:4047C000204602F08FF9002070BD0000A4150020B40D00205C150020840D002008B50178FFF73CFF814201D10C2008BD002914D0072069460870FFF70BFF012807D1012125
:40480000684600F0D9F8012801D0092008BDFFF7E1FE02F09BF9012011E0FFF7F9FE012806D1684601F006FE6846007800F0A0FA02F082F9FFF712FF0028FBD10220FFF7F4
:4048400083FE002008BD000070B505460C49007800244870FFF702FF012803D1FFF710FF022803D3284602F0EDF907E0284600F05DF8040002D1034801214170204670BD58
:40488000840D00206416002038B568460BF04CFF002801D01F2038BD01210098C90201804180002505714571857107214173857302F018F9009C202200212046FDF778FAEF
:4048C00025702A460021601CFDF772FA204602F0FBF8204602F0B6F900980BF08FFF062200210448FDF764FA02480C388560002038BD0000880D0020F8B504460025684655
:4049000000950BF011FF002801D007250AE0064E009830602278611C401CFDF740FA3168207808702846F8BD7C0D0020F8B504460025684600950BF0F7FE002801D00725C2
:404940000AE0064E009870602278611C401CFDF726FA7168207808702846F8BD7C0D00200346084800B5834209D8184600F014FE002804D00089984201D1012000BD0020D2
:4049800000BD0000FF0E0000074A9179491C8906890E917138220A4092014907090E11430843024908407047A4150020FF0E0000C006C00E70470000F8B507460E4600241B
:4049C0000D4803E0002C01D0002500E005462979002905D0641C2406240EF3D00020F8BD0021204601F024F92E712046FFF7CCFF28813C700120F8BDC415002010B503F0E7
:404A000063F90222002100F003F801F0EBFE10BD10B5094B40074907000F090F185A595A40185043C0086421FDF782F8002800D1012080B210BD000094300100F7B53D20BA
:404A4000405C88B015460C46002802D02878042802D200200BB0F0BD6946087200262046FFF794FA012800D00126204603A938300191009023460327A17E34333246206A83
:404A800003F046F902A8089900900B46019120463A4603A9243003F0C3F802466846007A2870204601F0B0F81046D3E7FFB587B00C4605461078694608723D20005D17460B
:404AC000002826D000262046FFF760FA012800D00126204603A93830019100902346A17E34333246206A03F013F902A80090291D019120462B1D03A924300A9A03F090F831
:404B000002006846007A388002D1204601F07CF810460BB0F0BDF0B505463C20405C89B016460C4600280CD0307869460873002806D000272046FFF729FA012803D003E00F
:404B40001F2009B0F0BD012703200890204604A93830019100902346E17E34333A46E06903F0D6F86846007B03A928180290009120462B46019504A92430089A03F084F8A0
:404B800002466846007B3070204601F047F81046D7E7FFB505463C20405C89B016460C46002810D0084601F0A3F801280BD0308869468883002809D000272046FFF7E6F9A1
:404BC000012805D005E000200DB0F0BD0220FBE70127204603A93830019100902346E17E34333A46E06903F093F8291D2B1D07A8129A6D4607C5204603A924300C9A03F0A3
:404C000043F802466846808B3080204601F006F81046D9E770B50D460446FFF7B7F901280AD0E87AA97A00020143A07801F0D6FC012808D0002070BD00222421204602F0FF
:404C4000F5FC242070BD28214C200155204600F0B1FB282070BD0000002801D0002000E003484030C07F012800D0002070470000C41500200146002049070ED50021084B86
:404C800003E0002901D0002200E01A461279022A04D0491C0906090EF3D0704701207047C41500200146002049070ED50021084B03E0002901D0002200E01A461279022A50
:404CC00004D0491C0906090EF3D0704701207047C415002010B5044680346068002803D00BF0A0FD0020606010BD403041707047403081707047403001707047017170478E
:404D000092001018C166704770B53C2501F08EF9040004D020460021433001F013FCFF222946204600F0E2FB002C02D0A07801F0FFF870BD10B5002801D0002000E0034814
:404D4000002802D0008903F027FD10BDC415002010B5002801D0002000E00448002804D00179072901D100F047F810BDC415002010B501F05BF9002802D0807801F0D8F89F
:404D800010BD00207047000070B50546008A00281ED01049F122897A1140C90618D5294640314A8A098A521C4A4392B2D10800D10121540801E0621A94B2A042FBD9FEF7C7
:404DC000CBFE012804D1298AA878224601F0CCFC70BD00005C15002010B50023054C0B60248A944204D992001018C26E0A60C36610BD00008C16002038B504460020009042
:404E0000A079002814D14020015D052901D00E290ED168460BF098FC002809D12046009902F0E2FB03481021C28A2046FFF7BDFB38BD00005C15002010B50B460446014663
:404E4000184602F05FF8002802D020460BF0E0FC10BD13B5044601AA11460620FEF706F86846818861811CBD002800D10220704770470000F8B504462346401D543300908B
:404E80009A1EA078911E01F0F1FA25464035A88A298A8000FCF74CFE401E81B2688A884203D96982A07801F071FF698A8C20015120460021433001F045FB27480088E8810C
:404EC00002F002FFE989891C8AB26179FFF7A0FD01F088FC02F0F8FE2A8A6179FFF798FD074601F073FC688A002806D01B49088A032212021043088202E0002001F03AFFB4
:404F00001648803801886E8A002E0CD0304648431349FCF7FDFE0004000C01D0401C80B21049488002E00F4800214180288A704381B2A07801F094FEFF2228374932B9B241
:404F40001346204602F024FCE98AA07801F008FEA07801F017FAF8BD80102E40E0112E40710200008E0D00207FB504468034616805460E46183108226846FCF710FF314650
:404F80002031082202A8FCF70AFF102168460BF075FB6068102108300BF070FB60682B46083024331022694602F05AFE7FBD10B504460821FFF704FB10212046FFF700FB0B
:404FC000207905281FD006281DD008281AD12189002003F059FB072020712046FEF7D6FF014620464030012913D00E21017000210176204600F0AEFF2046FFF76BFE20463D
:40500000FFF7C2FE10BD20890122002103F020FBE1E70521EAE70000FFB581B01F4604460821FFF7CDFA10212046FFF7C9FA2079082803D0092804D0042203E00422012573
:4050400001E009220025204600F03EFE264600204036307022712046FFF73CFE0398002D02D0012808D00BE001280AD120890022029903F0EDFA04E02189029803F004FBBE
:40508000012700203076012F04D0204600F062FF05B0F0BD02983073204602F0F3FA054605480121C28A2046FFF77FFA002DEFD109202071ECE700005C15002070B50C4606
:4050C0000546FEF763FF012809D108212846FFF777FA0023012221462846FFF79DFF70BD10B5044600F0F0FD2046FFF7F3FD00214034217010BD70B505461A24FEF746FF20
:40510000012809D108212846FFF75AFA0023012221462846FFF780FF70BD0000F8B50446002000900E4668460BF00EFB002801D00D20F8BD8420005908212030009D00F043
:4051400026FA20460421383000F021FA002E02D1204600F0F5FD2946204602F0D4F90E480821C28A2046FFF720FA204600F063FF25464035002808D0204600F023F80028C2
:4051800001D0092028700020F8BD08202870204600F0CCFFF7E700005C150020014610B540310A460978082906D0092907D00A2901D100F091F810BD0B20107010BD00F027
:4051C00001F810BD70B50446007925464035052805D0062803D008280FD00C2070BD03220621204602F022FA0D480821C28A2046FFF7DBF91120287010E00620287320461C
:4052000002F040FA0646AA8A0A20424301212046FFF7CBF9002E01D109202071002070BD5C15002038B504460020009068460BF08BFA002801D00D2038BD2046009D00F016
:40524000BDF908202071204600F07AFD2946204602F08CF900213D2001550F2040210855204600F063FF002038BD00B5024600F02BFD10214032117000BD10B50446FEF71E
:4052800085FE012809D04020005D112805D100231A4606212046FFF7BFFE10BD10B5FFF786FE10BD38B504460021684600910BF04BFA00280CD12046009902F0D8F9054816
:4052C0000821C28A2046FFF770F90D204034207038BD00005C15002038B504460021684600910BF031FA002801D00D2038BD2046009902F0B1F905480821C28A2046FFF72C
:4053000054F90C2040342070002038BD5C15002000787047F8B5002569460D70002801D0002400E01F4C002C18D0204600F0D5FC002813D0207903280BD005280CD026465B
:405340004036B18AA07801F095FCB078012806D01DE0042020711DE006202071F8BD0021204601F0ECFD274680373868002802D00BF058FA3D600020B0702079072802D1BC
:405380002046FFF701FD0221204600F0E9FE20790428E3D1207A694608703420FEF7BEFCF8BD0000C415002010B54C22115400F04CF810BD10B50446FF21FFF701F9092067
:4053C0002071A07801F07CFC10BD000038B5FF216A461180002801D0002400E0084C002C0DD011460620FDF741FD684601882046FFF72FFD03480068C1692046884738BDB1
:40540000C4150020D00D002010B504468079002809D022214C200155FF212046FFF7D0F8204600F012F810BD10B5037902464032002B03D01173092B02D003E0002100E090
:405440002221117300F001F810BDFEB504460089002700902781207926464036002817D0012815D002280AD112E002AA01A9204601F036FD002807D101980BF0C9F920469F
:4054800001F056FD0028F0D02046FEF7CFFCB776254680352868002802D00BF0C3F92F606868002802D00BF0BDF96F60317B002919D0009800F064F8A078002100F07EFFEB
:4054C0002046FFF79BFAA07801F072F8A07800F02FFDFF212046FFF773F80B20FFF734F800F068FCFEBD1F213173E2E7F8B517460E46054602F0E4FB04003CD020460C30F8
:4055000001F010F82046062200211830FCF750FC2046062200211230FCF74AFC1648224600683946436A28469847074626702846FEF72CFD012148406070002D10D02889C4
:40554000608028464030C1782171002E0FD169796171018AE180418A2181808A608106E00648008BC005C00F2071002060803946204603F00CF8F8BDB40D002000102E40C8
:405580000A4610B50146002003F01EF910BD10B50AF050FE10BD000000B50146FFF708FA002801D0002000E00348002802D002898A4200D0002000BDC415002038B5044658
:4055C00080346068002806D168460BF0CDF8002801D100986060606838BD000010B5014600F086FB0128887802D0FEF7D9FC10BD90214843024940186030007F10BD0000E9
:40560000A415002070B5054604464035A87F012811D1A1789020084A484380186030067F3046FEF78BFE002805D10220A877A078314601F067F870BDA415002010B50C4CA8
:40564000A07A002813D0FEF725FF0A48027F417F408B00F0B7FB012809D10020A07200F0FFFE05498989090B01D000F03BFA10BD70160020A4150020A0102E407047704788
:40568000490510B5490F0B00FCF78EFD060704080C0C0F073E21FFF787FE10BD0821FFF7C3FE10BDFFF7D1FE10BDFFF7ADFE10BDF8B507460025002D01D0002600E0204ECA
:4056C00000F092FE3046403044890021418100F095FE304600F001FB01282BD1A00702D52846FFF717FEE00602D52846FFF76EFEA00601D5FEF7CEFE600601D500F014FB8E
:40570000200602D5284600F01DF8600702D5284600F02CFA380402D52846FFF719FB780402D52846FFF706FBE00703D021463046FFF7A6FF6D1C2D062D0EBCD0F8BD00008A
:40574000C4150020F8B5002801D0002400E0284C002C4BD025464035A878012846D1FF278820493700593E46002805D02149897A890601D5878AC68A2046FEF707FC0128A9
:4057800034D002F0A1FA2A8A6179FFF741F9009001F01CF800983346283081B23A46204601F0F6FFE98AA07801F0DAF912480188688A124E002810D048431149FCF7A8FA97
:4057C0000004000C01D0401C80B27080A07DC107C90F002001F0A0FA01E000207080288A698A484381B2A07801F03AFAF8BD0000C41500205C15002060112E408E0D002078
:40580000710200000149096809680847D00D002070B50D460026194A0146002801D0002401E014462034002C26D0204600F060FA01280AD19020484380186030007FFEF7DC
:405840007DFD002801D101F09DFE0D48006881692046884700280CD020464030817EA94202D3491B817600E086762089294602F04CFF204600F05AFC70BD0000A415002075
:40588000D00D002070B503460088FFF785FE040013D000F022FA00280FD02079092819D02546997840352973204601F0EBFE0646A878012803D0AA8A02E0022070BDEA88C3
:4058C0000A20424301212046FEF76FFE002E01D109202071002070BD0EB5002217216B460292198100905A810120029B00990BF039F80EBDF8B518480024807A002822D10D
:40590000164E0025B089000B22E0204600F02AFE1249A039401807882A462146384600F051FA012810D00E480122478305770A4944778A72002D01D0002000E02030002827
:4059400001D000F0F3FBF8BDB089000B641CE4B20028DAD1F8BD000070160020A0102E40A415002010B50088FFF716FE002809D0014640310C460978082905D00B2903D054
:405980000C2010BD022010BDFFF71CFC002801D009202070002010BD70B503460088FFF7FBFD040008D0254640352878082805D00B2803D00C2070BD022070BD8420005962
:4059C00010220830991CFCF7EAF92046FFF7CCFA2878082804D02046FFF77EFC002801D00A202870204600F0A1FB002070BD000010B50C46002121700088FFF7CDFD030008
:405A00000BD000F06AF9002807D00948F121807A0840C00603D4112010BD022010BD022020701A8A1889002102F0EAFE002010BD5C150020F8B50F46002100910088FFF768
:405A4000ABFD040012D000F048F900280ED0E079410641D4617E02264A07002A08DB8907402500291ADA2843E07135E00220F8BD02F026F90021017021894180A189818054
:405A8000217E4170E189C1803E7005460178134802F090FB284602F057FE1DE0204600F02DF9012806D068460AF04EFE002803D00720F8BD2A20F8BDE07900992843E071FC
:405AC000204601F009FE607E0421304360760448C28A2046FEF769FD0020F8BD1D0400005C1500203EB500220F236C460292238100910190628169460EC900200AF032FF15
:405B00003EBD0000F8B50F46054600F08FFA040025D003202071254600264035EE76E6702046FFF7A7F901F007F80920FEF70CFDA07800F02BFD0121204600F011FB2E70D2
:405B40006E70AE703A4600212046FFF7CFFC0649887B401C8873A078FFF754FEF8BD284601F0AEF8F8BD0000A415002010B5002801D0002000E0094800280DD00146403144
:405B80000A464978022901D100215170807DC107C90F002001F0C0F810BD0000C415002070B503460D460088FFF7F6FC04000BD000F093F8002807D01248F121807A084091
:405BC000C00603D4112070BD022070BD20464030418A008A491C41430804C10C5888884201D2122070BD20822079072802D12046FFF7CAF8022028702089002102F028FE9B
:405C0000002070BD5C150020016A491C016204D1817E491C4906490E81767047C169491CC16104D1C17E491C4906490EC1767047F0B5074687B003A8009005A800260D467E
:405C40000190002F01D0002400E01B4C002C05D06846FCF7FBF8002803D00BE0022007B0F0BD68460089C00704D1902200212046FCF79EF81148294600688268204690473B
:405C8000050016D1A77066762746267140373E70204600F019F8204601F046F9084820820848BE77807AF121084000D001202075E682E8B2D3E70000C4150020D00D0020DC
:405CC000B80B00005C150020002101628176C161C17620300177417770470079002805D0012803D0022801D001207047002070474030807F002800D0012070474030007802
:405D0000002807D0012805D0052803D00E2801D0012070470020704710B5807801F084F8002800D0012010BD10B500F099FB03498989090B01D0FFF7D5FE10BDA0102E4060
:405D400070B5054604464035A87F002825D1FF206075A0789021154A484380186030417F9023491CC9B24177A0785843104B8018DB896030994201D300214177A0789021EA
:405D8000484380186030467F0677A1783046FEF7D5FA002802D00120A87770BD0220A877A078314600F0AEFC70BD0000A41500208C1600200020401C0006000EFBD0002087
:405DC00070470000F0B515468207920F85B0000A02926A469080002D01D0002400E0524C002C28D0084600F0BDFB07466846808800280BD00298012843D0022841D0032833
:405E00000BD03D20005D012870D087E04748381801882046FFF71DF880E00020029002A80AF072FC002807D03D20005D012878D12046FFF7E9FE74E06846029E838832466D
:405E400000213846FCF724FF3848381801882046FEF7FFFF284600F0A1FA01AA21463046FEF7ECFD002806D030460AF0BDFC3D204C21085528E0F5773146204601F0BAF919
:405E80004FE0002000902089039068460AF02CFC002802D0002005B0F0BD6846009E8388321D00213846FCF7F3FE2048381801882046FEF7CEFF284600F070FA2546403541
:405EC000287E00280CD103E02046FFF773FA28E001AA21463046029BFEF7E8FD002806D030460AF077FC3D202873EDE713E00298FEF7BEFF01460398307003980901000A27
:405F00000843707068468088B070000AF0703046FFF7E2FC05E02046FFF776FE284600F03DFA0120B7E70000C415002000102E4010B5074A917B002901D0491E9173002184
:405F4000FFF776FE002801D0002010BD012010BDA4150020F8B5074606464037B87F00282DD0B078902100904843234945186035287F0099FEF7F7F901281ED0287F401C60
:405F8000C4B21E48C089A04200D800240020B877FF276F772F77A87702460146009800F01DFD717DFF2903D0304600F07EFF777501F0E8FA0025114F19E00320B877F8BD7D
:405FC00000200090224669463046FEF705FF0099002904D0FF231A463046FEF7DCF9641CF889E4B2A04200D800246D1CEDB2F889A842E5D8F8BD0000A41500208C160020FE
:4060000010B502460021084B03E0002901D0002000E018460479944204D0491C0906090EF3D0002010BD0000C415002000B50120FFF7E6FF00BD10B5044601F041FE2189F2
:40604000018080346168416061682831816002F035FB10BDF7B50646087982B00C46092807D0A078F0770846FFF742FE012806D010E030460AF0CCFB022005B0F0BDA178C4
:406080009020294A484380186030007FFEF756F9012810D0A078FEF7DFFD01280BD037780121304601F01AFA25462035062F38D00B2F0FD107E06846027C21463046FEF709
:4060C000BBFE0D20D9E72046FDF760FF012801D1002028772046FFF781FA054604AA21463046FEF718FD01205F2108556946097C002001910090A07833463A46294600F0EC
:40610000ABFA69460A7CA0780323294600F0ECFDA0782946FDF768FE30460AF079FB0020ABE70120D5E70000A415002010B502464032937F0021002B03D1927E002A00D017
:406140000121064A927A002A00D000210279092A00D10121807800F0FFFD10BD7016002070B50C460546FDF711FF00280BD1012C06D92879092806D02846FFF7CDFD044698
:40618000002C02D004E0012402E0A87DC007FAD1A87DC107C90F204600F0BEFD70BD0000012807D0082804D104480282034808300180704701488038FAE70000A0102E40AC
:4061C000014908817047000000102E4010B50446FF20F130012C01D1FF20D530002200F0EDFD044A108A044980B2A0430880108210BD000000102E40920D0020034B198ACA
:40620000034A89B2814311801982704700102E40920D002010B50446012802D0082C07D102E0FF20D53001E0FF20F13000F0BEFD0348018A034A89B221431180018210BD67
:4062400000102E40920D0020034B198A034A89B2014311801982704700102E40920D0020F8B505460120A84086B214460F46012231467C2000F0A2FD3A463146782000F0D8
:406280009DFD6078267800020643E078A2780002024360792379000203430C2045430D2080010549281844182680001D44182280001D40180380F8BD00102E40CB065B0E9B
:4062C0000343480901021943D00108430121C902084301490881704780142E404278037812021343084A1382C37880781B021843908248780B78000203431383C878897823
:40630000000201439183704700142E40024A1080000C90801181704700142E40044A002180180288491C89B21029FAD37047000000102E40024A108201488030818170470B
:40634000A0102E4010B5054A1082084600F05AFD024A0021A03A8018018010BDA0102E4010B50B46044600F005F819462046FFF7E1FF10BD024A10820148803001817047B4
:40638000A0102E4010B504490882FF20002220211D3000F013FD10BDA0102E40000202494D3008807047000000102E400249888A0422904388827047C0112E4010B5084B74
:4063C000074C0202A03B0029208202D075321A8010BD04490020088088807632F7E70000A0102E40201A2E4000B5034908884880FFF704FF00BD0000920D002000B50248AA
:406400004088FFF721FF00BD920D002010B5FCF7F5FD10BD014952200880704700102E40884201D8081A03E00022D243101A401880B2704700210170704700000748808828
:4064400006492039098B884201D8081A03E00022D243101A401880B27047000020112E400148008AC0B27047A0102E4070B5084C049D2082074804890548603006880E804C
:4064800001891180808818806007400F287070BDA0102E40E0112E400148008970470000C0102E4000280FD00D4A108B0870000A4870908B8870000AC870094820300088B1
:4064C0000871000A48717047064A10880870000A487090888870000AC8701089F0E7000040102E40C0112E4000B5024A00F004F800BD0000FF7F000000B51346FFF790FF0D
:40650000984201D8022800D2002000BD0148008A70470000001A2E40014880887047000020102E40064B1A8999891B8A0270120A42708170090AC1700371190A41717047E7
:4065400060102E40012904D00549098BC90B017070470349403109898907C90FF7E7000000102E4001484089704700008C160020044A10820448028980894843101880B21E
:4065800070470000A0102E408C1600209021074B414300B5C918FF2260314A770A7700228A77114600F01AFA00BD0000A415002090225043074A10B58018FF2160304177C4
:4065C0000177002181770448418EFF201D3000F0EDFB10BDA41500205C15002000B5044A1082034880308088022200F003F800BDA0102E4010B50023884201D8081A03E062
:406600000024E443201A4018044980B2884201D8824200D90123184610BD0000FF7F000070B55478157824022543D47888232602947834435679127936023243002900D043
:406640009823044908820348A038181805808480028170BDA0102E40FFB581B014460D4607460A9E0B9BFFF783FF002E0AD0009333460021049AFCF79BFB05484019C4551E
:4066800005B0F0BD0021049AFCF778FBF5E70000960D002070B502460448054D808808242C800B460021FCF769FB70BD8C160020A0142E4010B52124024664010449532078
:4066C0000880102300212046FCF758FB10BD000000102E40417802780902044B0A431A83C1788078090208439883704760142E40034A108280200143014880300181704720
:40670000A0102E40054A1082044A6032908B0009000108439115084390837047A0102E4030B500210F4B0A46012809D0032802D005280AD107E04021198102210A2204E065
:4067400004210C2201E004210D221882054C20342088C0B205460D42FAD022800021198230BD000080142E4010B5044607480482074801808280032189030820FFF74AFDBC
:40678000200202497530A039088010BDA0102E40201A2E40054A1082044A60321183000202494B30A039088070470000A0102E40054A491E1082044A603211830002024977
:4067C0004C30A03908807047A0102E400349884200D908460249088070470000FF0F000060112E400349884200D908460249888070470000FF0F000060112E40882300292B
:4068000000D09823084908820748A038191808881070000A507088889070000AD07008891071000A50717047A0102E4010B51446024606480B46C0880021FCF785FA012CA6
:4068400002D103495420088010BD00008C16002000102E40064A11880170090A417091888170090AC1700349542008807047000080142E4000102E400121814010B589B222
:4068800000227C2000F09AFA10BD0000FEB5FF210120FFF79BFCFF210820FFF797FC3020FFF7ACFC3F48802101803F483F4D00784007400F02286FD001286BD10020288029
:4068C000002211460320FCF7D1FA394E3949B08D8882384F002420373248A0300482308F38822046FFF764FE641C2406240EF3D0B08F38832E48103000F052F971693069E8
:406900000191009069464879C021084369464871684600F06DF900F055F82548214C40304188A03421838188A1831E49C088C0318880708E38802048002606823920FFF775
:4069400083FC184F532038801C490720088354203880E020FFF7E2FCE820FFF7DFFCF020FFF7DCFC0020FEF749F813488682282101838015A0810F48403086815B203880FB
:40698000094800784007400F022807D0012801D10B482880FEBDFFE7032090E70848C01CF7E7000000102E408C160020001F2E405C150020C0112E40001A2E4080142E4015
:4069C000E0230000044800218183018302497420603908807047000060102E40074B1882064B6033988B00090001084399158843002A01D11021484098837047A0102E40A4
:406A0000F3B50D2284B0920100924A780B78120213430393CA788B78120213434A790979FF20120211431A4A8C46918B9E460291118B01911649742260390A8015490022D7
:406A40000F7821E00121124B9140009C603BE3181D8889B21C881B88039E6E407546654064462E435C4026430CD1029B194209D00199D140CB070499DB0F8B4202D110466E
:406A800006B0F0BD521CD2B29742DBD8F8E7000060102E409C15002030B50949FF208C8B084A00210125137805E02A468A40224204D0491CC9B28B42F7D830BD084630BDDB
:406AC00060102E409C15002010B50446E020FFF725FC20782246401CC3B20021E020FCF7F3F810BD42790021012A02D901214171090342790A430179042914D04900114332
:406B0000827B032A01D8D2001143427B52010A43817909021143012252031143054A118300889083704711460122920211430222E5E7000000102E4000B50120FFF75EFB80
:406B400001494120088000BD00102E4000B50120FFF77AFB01494020088000BD00102E40024A10820148603081817047A0102E4010B5044C2082044881800281838151434C
:406B8000018210BDA0102E40A0132E40034B1882024820388180028070470000A0102E404178027809020A4306490A80C2788378120213438B804279007912021043088132
:406BC00070470000C0112E404178027809020A4306490A81C2788378120213438B81427900791202104308827047000060102E40417802780902084B0A431A83C178827827
:406C000009020A439A8341790079090208430249203108807047000040102E404178027809020A4306498A80C2788378120213430B81427900791202104388817047000053
:406C4000001F2E4010B50446E820FFF767FB20782246401CC3B20021E820FCF735F810BD024A10820248818370470000A0102E40001A2E40024A1082014860308180704739
:406C8000A0102E4010B5044688000521FAF750FF04490C8204498880200202497230A039088010BDA0102E40001A2E4003490882000202497330A03908807047A0102E40AA
:406CC00003490882000202497030A03908807047A0102E4003490882000202497130A03908807047A0102E40F8B505461C4617460E46084600F086F8054AB90021431582D7
:406D0000034AA03A80180180024880194455F8BDA0102E409B0D002030B50E4C238A01251A46012804D0022804D000290BD00CE02A430AE0002908D12A432282500840009D
:406D400020821A4601E05A0852009A4200D0228230BD0000001A2E40054A1082044A6032908B4023984389010143918370470000A0102E40044A118A0223002801D0194383
:406D800000E0994311827047001A2E4000B5064A1082054860300181002901D0012000E00020FFF7E7FF00BDA0102E40024A801802880A430280704700102E4070B5084B93
:406DC000C5182C880023080003D104E040085B1C9BB2C607FAD08C439A4022432A8070BD00102E40024A1018405C8007800F70479B0D0020024908820148803080897047E6
:406E0000A0102E408000FF3041307047044B02461B8AFF208B4202D902484018805C70478C160020960D0020024908820148803000897047A0102E40174902460B68002039
:406E4000002B08D10A605207520F012A04D0022A10D0086012207047112292018A80CA80032252020A810122D2024A8140228A8105220DE0092252028A80CA8001225203E2
:406E80000A810322D2024A81012252028A810422CA810A82704700008C1600200A4600B501461046FFF7B2FF00BD38B50C46054600216846009109F047FC002804D10099C9
:406EC00028464C7000F0FAFB38BD10B5044680780021FFF745FE01212046FFF741F910BD436E002B0CD00B60014660318B781370826E4266CA788A70002181660846704746
:406F0000FF20704710B50346446E6033002C04D0846E002C04D0FF2010BD41669A7001E08166DA70002010BD0021416681667047406E002801D000207047FF20704770B5BB
:406F40000446C0790D46810610D5DF210840E07100F0B6FE0570218941804034218A8180618AC180A18A018101F0E4FA70BD000010B50446FEF7BCFE01280AD1A178902032
:406F8000054A484380186030007FFDF7D7F9012801D000F0F7FA10BDA4150020F8B50E460446FCF7F3FF01282BD02079042801D0072825D1F079B77900020743A078394680
:406FC000FFF70CFB25464035012820D03A46711C204600F084FA02212046FDF786FEA07DC107C90F0220FFF797FE688A002807D0E87E002804D1032109020820FFF70AF9AB
:40700000F8BD01222421204600F010FBF8BD282028732046FEF7CEF9F8BD70B50D460646FDF7F8FD002852D120213046FDF7C8FA3446687840346073E87820220002E08158
:40704000A9780843E0816879010228790843218A814203D0F1791143F1712082E8790102A8790843618A814203D0F1791143F1716082687A0102287A0843A18AE1808142FC
:4070800003D0F1791143F171A082A08A218A8000FAF74EFD401E618A80B2814200D9608201213046FDF724FEE87AA97A000201430022304600F02AFB608A002807D0E07EC4
:4070C000002804D1032109020820FFF7A3F870BDF8B50C4605460027FCF758FF012847D0284EB07AC00709D02846403000900078002806D0102803D01F212CE01A212AE0C3
:4071000001272846FEF75AFA002823D02E4680360822611C7068FAF742FE7068617A20300172A17A417270682146183008220B31FAF735FE21462846042213313430FAF792
:407140002EFE39462846FDF7E9FF002810D1002F0FD012E007210322284600F067FAF28A08212846FDF721FA11212846FDF7C3FDF8BD06212846FDF7C1FD00980121017662
:40718000F8BD00005C15002010B5FEF707F810BD38B504460020009020790D46042801D007281BD12046FCF7F1FE012817D0684609F0CAFA002811D10C486A78807A009982
:4071C0001040F12210402075607E082210436076204600F0B3F92046FDF7D3FD38BD08222421204600F022FA38BD00005C15002070470000F3B581B004460298FEF788F8A5
:4072000006462046FEF769FD002828D0162E04D32046029900F0F7F821E025464035287800220300FAF7C0FF0E1414140808141414080808080808140298154B0178002063
